@ba13 ; Affinity 
@bb02 ; MemBank 
@bc03 ; Command 
:020000020900F3
:1000000081C0FFCFFFC7FFCFFFC7FFCFFFC7FFCF25
:10001000FFC7FFCFFFC7FFCFFFC7FFCFFFC7FFCF90
:10002000FFC7FFCFFFC7FFCFFFC7FFCFFFC7FFCF80
:10003000FFC7FFCFFFC7FFCFFFC7FFCFFFC7FFCF70
:10004000FFC7FFCFFFC7FFCFFFC7FFCFFFC7FFCF60
:10005000FFC7FFCFFFC7FFCFFFC7FFCFFFC7FFCF50
:10006000FFC7FFCFFFC7FFCFFFC7FFCFFFC7FFCF40
:10007000FFC7FFCFFFC7FFCFFFC7FFCFFFC7FFCF30
:10008000FFC7FFCFFFC7FFCFFFC7FFCFFFC7FFCF20
:10009000FFC7FFCFFFC7FFCFFFC7FFCFFFC7FFCF10
:1000A000FFC7FFCFFFC7FFCFFFC7FFCFFFC7FFCF00
:1000B000FFC7FFCFFFC7FFCFFFC7FFCFFFC7FFCFF0
:1000C000FFC7FFCFFFC7FFCFFFC7FFCFFFC7FFCFE0
:1000D000FFC7FFCFFFC7FFCFFFC7FFCFFFC7FFCFD0
:1000E000FFC7FFCFFFC7FFCFFFC7FFCFFFC7FFCFC0
:1000F000FFC7FFCFFFC7FFCFFFC7FFCFFFC7FFCFB0
:10010000458A32E5A895F8942224EFB3E0930A6873
:10011000EFE1FAE6EDBFFEBFECE048D4E8EDF3E036
:10012000E4BFF093600000C000C0E0916300E1FD17
:10013000FCCFE8EDF1E0E4BFF093620031D4E0E001
:10014000FAE6C0E0DCE021922197E9F72092450829
:10015000E8E020923204E0933104E0933004E0E6DA
:10016000F8E02682A0E6B0E0A087B187A0E0A583F2
:10017000A3E0A783A2ECA6832A982198209A229A2A
:10018000E0E0FBE02082218224862586AFEFA68373
:10019000A3E0A083F3D318D41AD4AED393D28BD4D4
:1001A000AA98A29A7CC00AC5A4C501C5ADC5BCC4A5
:1001B00009C522C52BC53EC567C585C5AFC0AEC044
:1001C000ADC0ACC0ABC00C9408000C9409000C94FA
:1001D0000A000C940B000C940C000C940D000C9471
:1001E0000E000C940F000C9410000C9411000C9451
:1001F00012000C9413000C9414000C9415000C9431
:1002000016000C9417000C9418000C9419000C9410
:100210001A000C941B000C941C000C941D000C94F0
:100220001E000C941F000C9420000C9421000C94D0
:1002300022000C9423000C9424000C9425000C94B0
:1002400026000C9427000C9428000C9429000C9490
:100250002A000C942B000C942C000C942D000C9470
:100260002E000C942F000C9430000C9431000C9450
:1002700032000C9433000C9434000C9435000C9430
:1002800036000C9437000C9438000C9439000C9410
:100290003A000C943B000C943C000C943D00E3E0CD
:1002A00085D31ED0E0E082D33DC020920070209222
:1002B00019702092327020924B70209264702092BC
:1002C0007D702092007120921971209232712092DB
:1002D0004B712092647120927D7108953B2C08959A
:1002E0002A98319BFECFE0E5F0E03199FCCF3197C1
:1002F000E1F7319BFECF0895E29A14D240D285E611
:10030000BBD310C0E29A0ED23DD28EE7B5D30AC05D
:10031000E29A08D23AD283E2AFD304C003D229D200
:100320008EE200C04AD38ED3EFE1FAE6EDBFFEBF06
:1003300040D306D018D233D241D2F4D1D4D14AC25C
:10034000E199B3DFE79BCADFE299FBD1ECB3E97334
:10035000ECBB01D080C0C4DF2DD0CC24E601D0930B
:10036000246A87E162D0F093296A87E15ED0F09336
:10037000296A87E15AD0F093296A87E156D0F09331
:10038000296A87E152D0F093296A8FE74ED0FD2D7C
:10039000E1E0E081E7FD06D0E69B07D0E4E0E093F2
:1003A000A7040895E69AE79A0895E1E0DE26E1E0E1
:1003B000BE2635C0A895209266082092000BECE07E
:1003C000F0E0E0930A0BF0930B0B20920C0B2092C1
:1003D0000D0BEFEFE093060BE2ECE0936608209A3A
:1003E00087E0CAE2DAE63199FECFE3E0E093000B62
:1003F000E4E0E093A704E0E0FFE80090640807FE73
:10040000FCCF009061081090600802FC75CF199233
:10041000E125E0818A958AF7E093296A0895EAE266
:10042000FAE6CCE0D8E687E04FC22196E0E0FFE8AC
:100430000090640807FEFCCF0090610810906008EF
:1004400002FC5ACF1992E125E0818A958AF7F09152
:10045000296AFE2B0895BB2DB093256A60E07FE3E7
:1004600036D060E075E4A9E187E13FD060E07BE44D
:100470002ED060E071E5A2E387E137D060E077E558
:1004800026D060E07DE5ABE487E12FD060E073E645
:100490001ED060E079E6A4E687E127D060E07FE641
:1004A00016D060E075E7ADE78FE71FD060E673E92F
:1004B00000900A0B061600900B0B07060090060B27
:1004C00001FEB0F3E4E0E093A7042A9808950090B9
:1004D0000A0B061600900B0B07060090060B01FE98
:1004E000B0F3E4E0E093A7040895ED91E699EE7F80
:1004F000E0FD2A9AE0FF2A9800900A0B0616009069
:100500000B0B07060090060B01FEB0F3E4E0E0934E
:10051000A704E0916408E5FFFCCFED91E093620849
:100520008A95BAF7E0E4E0936408E0916408E6FF96
:10053000FCCF08950C94690C0C94640C0C946D0C15
:10054000E601E885E03120F4F0E0ED52F74F099440
:10055000E5CE9FD0E7E7FCE687E1EEDF87C099D0E4
:10056000E7E7FCE68DE0E8DFECE0F8E683E0E4DFD7
:1005700083E0E0DF6FC08DD0D32DCEE780E8E0E0F0
:10058000F9E6DADF02C085D000C088D082D0F6015B
:100590008FE0D2DFD32DCEE7AFE7B0E020DEF32D42
:1005A000EC2D3F96A193B193C193D19353C0E60133
:1005B00088E1C4DF09F40895A5CEE601A2E1B0E028
:1005C0000EDEF601739671C0DD2DCEE7AFE7B0E029
:1005D00006DEF6013F9669C0E091266AE211E1501D
:1005E000E093266AE2119ACEE601E985F091226A4B
:1005F000EF23FA95F093226AE21190CE83C0E601D0
:10060000E985F091766CF211EF1388CE0895089584
:10061000E091276AE0FF82CE0895E091276AE0FD2D
:1006200004C08091236A821179CE0895CCDDA9910E
:10063000B9910D010128AE17BF07021051F4C5DDB5
:10064000A991B9910D010128AE17BF07021009F455
:10065000089564CED32DCC2DA2E1B0E0C0DDF32D02
:10066000EC2D7396A193B193C193D193D32DCC2D3F
:1006700087E164DFE9930895DF93CF93C82F0E9449
:100680008C0CEF91FF91A193B193C193D193EF01A2
:100690000895CC2DCA9504C0C4E602C0CDE700C0C1
:1006A000D32D888181608993089501900A122ACE02
:1006B00001900B1227CE01900C1224CE01900D1246
:1006C00021CE0895E3E0E093216AE0E0F2E76F01D4
:1006D000E0E0F0E75F013F2E2092276AE4E0ECBB08
:1006E0009CD01DD00FC0E7990895FD2DE2E08081D8
:1006F00080FD01D00895E091266AE211EA95E09329
:10070000266A0895E0914801FFE0F491F093226A8F
:100710002092266A0895EFE0E093266A08952092D9
:10072000236A0895F32DE0E02082F32DE9E1208291
:10073000E2E32082EBE42082E4E62082EDE72082FF
:100740000895F0E7BF2E3F2EB0CDE4E1F9E6219207
:10075000E033E9F708952092480120924901E1E051
:10076000E09343010895E0E8F9E6A2C0E4E8F9E681
:100770009FC0E8E8F9E69CC0E0E9F9E699C0ECE83A
:10078000F9E696C0E4E9F9E693C0E8E9F9E690C035
:10079000E091296A2092296AE211B4CD0895E7997F
:1007A0000895DD2DC5E0E881F091286AF395E09386
:1007B000286AEF1709F40895E29AAACDDD2DC0E06A
:1007C000EC85E093216AE7998CC2EB85E77FFBE03B
:1007D0000C94B70C02D0EBDEB3CECAE1DD2DCC2EEB
:1007E00080E090E0E0E0F9E6099011908029012492
:1007F0009029E830C9F7803011F092118FCDE0E0F8
:1008000009F0E1E0E093276A08952092766C209247
:10081000726CECB3E260ECBB089501D037C0E0E04D
:10082000F9E60E94F708EF010E94E308E993F993C3
:100830000E94E508E993F9930E94760CE993F993F5
:100840000E94790CE993F9930E94E708E993F993E0
:100850000E94E908E993F99382E00EDF81E00CDF62
:1008600083E00ADF84E008DF87E006DF85E004DF5D
:1008700086E002DFE0E1F1E180E15EDEE8E1F0E068
:10088000E993F993E0910A68E993089509D081E02A
:100890008993E8E0F9E68CE04FDE299229920895E9
:1008A000C7E7DCE6E0E0F9E688E046CE0C943C0DD4
:1008B0008081918101968083918328F48281938144
:1008C0000196828393830895019009928A95E1F7B6
:1008D000089529928A95E9F70895E0E0FFE80990E4
:1008E000E025E0818A95D9F7EE230895E0E0F0E075
:1008F0000895E0E0F0E00895E2E5FCE60E941B09BF
:10090000C2E3DAE60E941D09E2E3FCE60E941B094D
:10091000C2E3DAE60C941D09E2E5FCE60E941F0939
:100920000C940F09C0E0D8E6A4E0B0E00EC0C0E02F
:10093000D8E6A8E0B0E014C0C0E0D8E680E0C9DFA7
:1009400000C0EFEFE0930968089549DCF001A0953D
:10095000B095C095D095A083B183C283D383089509
:100960003EDCF00180830895E2E0F2E000C0EF2376
:10097000F0950090206A0F22E02904C0E0E002C058
:10098000EFEF00C0E093206A00C0E091206A0C9471
:10099000ED08EF23F0950090216A0F22E02906C0B0
:1009A000E0E004C0E5E502C0EFEF00C0E093216A9B
:1009B00000C0E091216A0C94EB08939904C0E5E52E
:1009C000B19B0C94190907C0442455240895AA9892
:1009D0000895AA9A0895E0914408E7FF0895E091E8
:1009E0004008E093007408958F93892F0AD08F9167
:1009F00008C08F93892F05D08F9100C002D08CE260
:100A00003BC001D003C08F93829501C08F938F703C
:100A1000805D8A3308F0895F2FD08F9108958AE036
:100A20002BD08DE029C00F01451451F0F0914408FE
:100A3000F5FF06C0F5E7E52DF081F09342085394E9
:100A4000F0010895451459F0F0914408F5FFFACFEC
:100A5000F5E7E52DF081F09342085394F3CF089524
:100A6000C42DD5E70190002029F00882C395C51157
:100A7000F9CFCA954C2ED8CF0F01F201FA95EF1796
:100A800019F0F5E780834394CFCF8F938E2FF20137
:100A9000FA95EF1719F0F5E7808343948F91089545
:100AA0008991ACDF9A95E1F70895899182118813B5
:100AB0000895E2DFFACFCAECDAE9F7DF80910A683D
:100AC000A0DFCAEDDAE9F1DFBDCF0A0D1B5B3434DC
:100AD0006D2E2E2E5B424C442D005D1B5B6D0A0D6E
:100AE0000000CAEEDAE9E1DFADCF0A0D1B5B34335B
:100AF0006D2E2E2E5B5550445D1B5B6D0A0D000064
:100B0000C2E1DBE9D2DFC0E0D8E690E1C9DF87DFF0
:100B100099CF0A0D1B5B34326D2E2E2E5B41505047
:100B20005D1B5B6D202D200073DD47DDF4DD82E66B
:100B3000BDDEC0911A69D0911B69CF33A1F5D13CBC
:100B400091F52A982FDF7EDFE60189858093026880
:100B50008889998980930368909304688E859F851E
:100B60008093006890930168ECE0F8E6C5E1D8E670
:100B700087E0AADE80910268839580931768C5E1BB
:100B8000D8E687E0AADEE8830E94920CE6018A8913
:100B900080FF0C940010E8EDE0933400E5E8E0936A
:100BA00001100C940010ECB3E260ECBBB7CB30DD6D
:100BB00004DDB1DD81E77ADEDEDCB4CB89E676DE0A
:100BC0000C9492092ADDE6012A9630DDF6DCA3DDDD
:100BD00083E76CDEE601EE85E093726CE985E093D5
:100BE000766CB9DDC7E0E2E5FCE629DBC091726C0A
:100BF000E2E3FCE624DB96CB10DDE6012A9616DD67
:100C0000DCDC89DD85E752DE00DE8CCB01DDD5DC66
:100C100082DD82E74BDEF601A285B385D32DCEE7D8
:100C20008585813808F07ACB0D9009928A95E1F795
:100C3000AADC78CBE4DCF1DCC0DCC6DC6CDD8BDD6F
:100C400087E734DEF60182859385D3DEF60185855C
:100C5000D5DE2A987ADDA0E8B0E0DD2DCEE7E2E52A
:100C6000FCE6EFDAF601C285D385E2E3FCE6C7DAFB
:100C7000E601AD85B0E0C2E5DCE6E2E3FCE6E5DAFC
:100C8000ECB3E260ECBB4ECBBADCC7DC96DC43DDF8
:100C900086E60CDEF60182859385ABDEB6DD55DD9A
:100CA0002A98E2E3FCE6D7DAF601C285D385E2E3CF
:100CB000FCE6A5DAE6018D85CADACDDAB0DDECB363
:100CC000E260ECBB2FCBA3DCE6012A96AFDC75DC3F
:100CD00022DD8DE6EBDDF60181858093236A0C949D
:100CE00092098DE2E3DDE8E0F8E041DE3FDD0C94BF
:100CF000920993DCE6012A9699DC5FDC6DDC80E7E3
:100D0000D5DDC4DD2CDC0ECB88DCE6012A968EDC3A
:100D100054DC01DD82E5CADDA0CAFFFFFFFFFFFF53
:00000001FF
; 
@bf00 ; Bootloader backup 
; *** EOF 
