@ba13 ; Affinity 
@bb02 ; MemBank 
@bc03 ; Command 
:020000020900F3
:1000000087C0FFCFFFC7FFCFFFC7FFCFFFC7FFCF1F
:10001000FFC7FFCFFFC7FFCFFFC7FFCFFFC7FFCF90
:10002000FFC7FFCFFFC7FFCFFFC7FFCFFFC7FFCF80
:10003000FFC7FFCFFFC7FFCFFFC7FFCFFFC7FFCF70
:10004000FFC7FFCFFFC7FFCFFFC7FFCFFFC7FFCF60
:10005000FFC7FFCFFFC7FFCFFFC7FFCFFFC7FFCF50
:10006000FFC7FFCFFFC7FFCFFFC7FFCFFFC7FFCF40
:10007000FFC7FFCFFFC7FFCFFFC7FFCFFFC7FFCF30
:10008000FFC7FFCFFFC7FFCFFFC7FFCFFFC7FFCF20
:10009000FFC7FFCFFFC7FFCFFFC7FFCFFFC7FFCF10
:1000A000FFC7FFCFFFC7FFCFFFC7FFCFFFC7FFCF00
:1000B000FFC7FFCFFFC7FFCFFFC7FFCFFFC7FFCFF0
:1000C000FFC7FFCFFFC7FFCFFFC7FFCFFFC7FFCFE0
:1000D000FFC7FFCFFFC7FFCFFFC7FFCFFFC7FFCFD0
:1000E000FFC7FFCFFFC7FFCFFFC7FFCFFFC7FFCFC0
:1000F000FFC7FFCFFFC7FFCFFFC7FFCFFFC7FFCFB0
:1001000001003BC1020100002DAC1E6646D4011067
:10011000A895F8942224EFB3E0930A68EFE1FAE699
:10012000EDBFFEBFECE069D4E8EDF3E0E4BFF0938F
:10013000600000C000C0E0916300E1FDFCCFE8ED8D
:10014000F1E0E4BFF093620052D4E0E0FAE6C0E0F0
:10015000DCE021922197E9F720924508E8E020921F
:100160003204E0933104E0933004E0E6F8E02682C4
:10017000A0E6B0E0A087B187A0E0A583A3E0A783B5
:10018000A2ECA6832A982198209A229AE0E0FBE02C
:100190002082218224862586AFEFA683A3E0A08358
:1001A00014D439D43BD4CFD38AD2ACD4AA98A29A4F
:1001B0007CC02BC5C5C522C5CEC5DDC42AC543C577
:1001C0004CC55FC588C5A6C5AFC0AEC0ADC0ACC08C
:1001D000ABC00C9408000C9409000C940A000C9419
:1001E0000B000C940C000C940D000C940E000C945D
:1001F0000F000C9410000C9411000C9412000C943D
:1002000013000C9414000C9415000C9416000C941C
:1002100017000C9418000C9419000C941A000C94FC
:100220001B000C941C000C941D000C941E000C94DC
:100230001F000C9420000C9421000C9422000C94BC
:1002400023000C9424000C9425000C9426000C949C
:1002500027000C9428000C9429000C942A000C947C
:100260002B000C942C000C942D000C942E000C945C
:100270002F000C9430000C9431000C9432000C943C
:1002800033000C9434000C9435000C9436000C941C
:1002900037000C9438000C9439000C943A000C94FC
:1002A0003B000C943C000C943D00E3E0A6D31ED030
:1002B000E0E0A3D33DC020920070209219702092FC
:1002C000327020924B702092647020927D70209248
:1002D0000071209219712092327120924B712092FC
:1002E000647120927D7108953B2C08952A98319B6A
:1002F000FECFE0E5F0E03199FCCF3197E1F7319B9B
:10030000FECF0895E29A0DD239D285E6DCD310C033
:10031000E29A07D236D28EE7D6D30AC0E29A01D249
:1003200033D283E2D0D304C0FCD122D28EE200C00B
:100330006BD3AFD3EFE1FAE6EDBFFEBF61D306D0DA
:1003400011D22CD23AD2EDD1CDD143C2E199B3DF53
:10035000E79BCADFE299F4D1ECB3E973ECBB01D0BF
:1003600080C0C4DF2DD0CC24E601D093256A87E17C
:1003700062D0F0932A6A87E15ED0F0932A6A87E11F
:100380005AD0F0932A6A87E156D0F0932A6A87E11F
:1003900052D0F0932A6A8FE74ED0FD2DE1E0E08144
:1003A000E7FD06D0E69B07D0E4E0E093A7040895BC
:1003B000E69AE79A0895E1E0DE26E1E0BE2635C040
:1003C000A895209266082092000BECE0F0E0E09304
:1003D0000A0BF0930B0B20920C0B20920D0BEFEFFE
:1003E000E093060BE2ECE0936608209A87E0CBE20C
:1003F000DAE63199FECFE3E0E093000BE4E0E0932E
:10040000A704E0E0FFE80090640807FEFCCF00903E
:1004100061081090600802FC75CF1992E125E08117
:100420008A958AF7E0932A6A0895EBE2FAE6CCE02F
:10043000D8E687E070C22196E0E0FFE8009064080B
:1004400007FEFCCF009061081090600802FC5ACFB4
:100450001992E125E0818A958AF7F0912A6AFE2BAC
:100460000895BB2DB093266A60E07FE336D060E04C
:1004700075E4A9E187E13FD060E07BE42ED060E045
:1004800071E5A2E387E137D060E077E526D060E050
:100490007DE5ABE487E12FD060E073E61ED060E03D
:1004A00079E6A4E687E127D060E07FE616D060E039
:1004B00075E7ADE78FE71FD060E673E900900A0BA0
:1004C000061600900B0B07060090060B01FEB0F31A
:1004D000E4E0E093A7042A98089500900A0B06161A
:1004E00000900B0B07060090060B01FEB0F3E4E052
:1004F000E093A7040895ED91E699EE7FE0FD2A9A36
:10050000E0FF2A9800900A0B061600900B0B0706D6
:100510000090060B01FEB0F3E4E0E093A704E09145
:100520006408E5FFFCCFED91E09362088A95BAF785
:10053000E0E4E0936408E0916408E6FFFCCF0895EE
:100540000C94900C0C948B0C0C94940C9FD0E8E7BA
:10055000FCE687E1F7DF87C099D0E8E7FCE68DE0AD
:10056000F1DFECE0F8E683E0EDDF83E0E9DF6FC088
:100570008DD0D32DCEE780E8E0E0F9E6E3DF02C0DE
:1005800085D000C088D082D0F6018FE0DBDFD32D8C
:10059000CEE7AFE7B0E029DEF32DEC2D3F96A19337
:1005A000B193C193D19353C0E60188E1CDDF09F443
:1005B0000895AECEE601A2E1B0E017DEF601739633
:1005C00071C0DD2DCEE7AFE7B0E00FDEF6013F965C
:1005D00069C0E091276AE211E150E093276AE211D5
:1005E000A3CEE601E985F091226AEF23FA95F09314
:1005F000226AE21199CE85C0E601E985F091776C17
:10060000F211EF1391CE08950895E091286AE0FF6A
:100610008BCE0895E091286AE0FD04C08091236AA2
:10062000821182CE0895D5DDA991B9910D010128DD
:10063000AE17BF07021051F4CEDDA991B9910D019B
:100640000128AE17BF07021009F408956DCED32D0F
:10065000CC2DA2E1B0E0C9DDF32DEC2D7396A19372
:10066000B193C193D193D32DCC2D87E16DDFE99365
:100670000895DF93CF93C82F0E94B30CEF91FF91A1
:10068000A193B193C193D193EF010895CC2DCA9555
:1006900004C0C4E602C0CDE700C0D32D88818160CC
:1006A0008993089501900A1233CE01900B1230CE37
:1006B00001900C122DCE01900D122ACE0895E3E088
:1006C000E093216AE0E0F2E76F01E0E0F0E75F012C
:1006D0003F2E2092286A2092246AE4E0ECBBC4D02A
:1006E0001DD00FC0E7990895FD2DE2E0808180FDC7
:1006F00001D00895E091276AE211EA95E093276A14
:100700000895E0914801FFE0F491F093226A20926D
:10071000276A0895EFE0E093276A08952092236AFC
:100720000895F32DE0E02082F32DE9E12082E2E359
:100730002082EBE42082E4E62082EDE72082089527
:10074000F0E7BF2E3F2EB7CDE4E1F9E62192E0338A
:10075000E9F708952092480120924901E1E0E093F1
:1007600043010895E0E8F9E6CAC0E4E8F9E6C7C045
:10077000E8E8F9E6C4C0E0E9F9E6C1C0ECE8F9E66A
:10078000BEC0E4E9F9E6BBC0E8E9F9E6B8C0E0912B
:100790002A6A20922A6AE211BBCD0895E79908954A
:1007A000DD2DC5E0E881F091296AF395E093296A8F
:1007B000EF1709F40895E29AB1CDDD2DC0E0EC8584
:1007C000E093216AE799B4C2EB85E77FFBE00C94E4
:1007D000DE0C1ED0E9DE37C0E0910068F0910168C0
:1007E000C3E301D015C0DD2DCC2E888199819F3FB8
:1007F00049F4803051F08F3F51F00090246A801509
:1008000021F005C08E179F0711F40F900F900895E7
:10081000CAE1DD2DCC2E80E090E0E0E0F9E6099021
:100820001190802901249029E830C9F7803011F017
:1008300092117ACDE0E009F0E1E0E093286A0895B2
:10084000E601EA8102C0E601E885E03120F4F0E04B
:10085000E752F74F099468CD2092776C2092736C21
:10086000ECB3E260ECBB089501D037C0E0E0F9E6FC
:100870000E94FD08EF010E94E908E993F9930E94A4
:10088000EB08E993F9930E949D0CE993F9930E9478
:10089000A00CE993F9930E94ED08E993F9930E9463
:1008A000EF08E993F99382E0E4DE81E0E2DE83E0A1
:1008B000E0DE84E0DEDE87E0DCDE85E0DADE86E0B6
:1008C000D8DEE0E1F1E180E13DDEE8E1F0E0E9934E
:1008D000F993E0910A68E993089509D081E089933A
:1008E000E8E0F9E68CE02EDE299229920895C8E727
:1008F000DCE6E0E0F9E688E025CE0C94630D80812B
:10090000918101968083918328F48281938101965D
:10091000828393830895019009928A95E1F708955F
:1009200029928A95E9F70895E0E0FFE80990E0252B
:10093000E0818A95D9F7EE230895E0E0F0E008958C
:10094000E0E0F0E00895E3E5FCE60E942109C3E35E
:10095000DAE60E942309E3E3FCE60E942109C3E3EF
:10096000DAE60C942309E3E5FCE60E9425090C94E1
:100970001509C0E0D8E6A4E0B0E00EC0C0E0D8E6BB
:10098000A8E0B0E014C0C0E0D8E680E0C9DF00C055
:10099000EFEFE0930968089528DCF001A095B09589
:1009A000C095D095A083B183C283D38308951DDC05
:1009B000F00180830895E2E0F2E000C0EF23F095BB
:1009C0000090206A0F22E02904C0E0E002C0EFEFAF
:1009D00000C0E093206A00C0E091206A0C94F30804
:1009E000EF23F0950090216A0F22E02906C0E0E095
:1009F00004C0E5E502C0EFEF00C0E093216A00C04B
:100A0000E091216A0C94F108939904C0E5E5B19B4B
:100A10000C941F0907C0442455240895AA980895EA
:100A2000AA9A0895E0914408E7FF0895E0914008EC
:100A3000E093007408958F93892F0AD08F9108C096
:100A40008F93892F05D08F9100C002D08CE23BC0DC
:100A500001D003C08F93829501C08F938F70805D0A
:100A60008A3308F0895F2FD08F9108958AE02BD0C8
:100A70008DE029C00F01451451F0F0914408F5FFB5
:100A800006C0F5E7E52DF081F09342085394F0019C
:100A90000895451459F0F0914408F5FFFACFF5E7B1
:100AA000E52DF081F09342085394F3CF0895C42DBF
:100AB000D5E70190002029F00882C395C511F9CF30
:100AC000CA954C2ED8CF0F01F201FA95EF1719F005
:100AD000F5E780834394CFCF8F938E2FF201FA9561
:100AE000EF1719F0F5E7808343948F91089589916A
:100AF000ACDF9A95E1F708958991821188130895E2
:100B0000E2DFFACFC8E1DBE9F7DF80910A68A0DF16
:100B1000C8E2DBE9F1DFBDCF0A0D1B5B34346D2E7B
:100B20002E2E5B424C442D005D1B5B6D0A0D0000B8
:100B3000C8E3DBE9E1DFADCF0A0D1B5B34336D2E7B
:100B40002E2E5B5550445D1B5B6D0A0D0000C0E608
:100B5000DBE9D2DFC0E0D8E690E1C9DF87DF99CFDB
:100B60000A0D1B5B34326D2E2E2E5B4150505D1BE7
:100B70005B6D202D200049DD1DDDCCDD82E6BDDE74
:100B8000C0911A69D0911B69CF33A1F5D13C91F581
:100B90002A982FDF7EDFE6018985809302688889A5
:100BA000998980930368909304688E859F858093CC
:100BB000006890930168ECE0F8E6C5E1D8E687E0CC
:100BC000AADE80910268839580931768C5E1D8E614
:100BD00087E0AADEE8830E94B90CE6018A8980FFDB
:100BE0000C940010E8EDE0933400E5E8E093011088
:100BF0000C940010ECB3E260ECBB96CB06DDDADCC3
:100C000089DD81E77ADEB4DC93CB89E676DE0C946D
:100C1000980900DDE6012A9606DDCCDC7BDD83E762
:100C20006CDEE601EE85E093736CE985E093776C0A
:100C300091DDC7E0E3E5FCE608DBC091736CE3E31C
:100C4000FCE603DB75CBE6DCE6012A96ECDCB2DCE5
:100C500061DD85E752DE00DE6BCBD7DCABDC5ADD35
:100C600082E74BDEF601A285B385D32DCEE78585DD
:100C7000813808F059CB0D9009928A95E1F780DC14
:100C800057CBBADCC7DC96DC9CDC44DD63DD87E750
:100C900034DEF60182859385D3DEF6018585D5DEC7
:100CA0002A9852DDA0E8B0E0DD2DCEE7E3E5FCE6D2
:100CB000CEDAF601C285D385E3E3FCE6A6DAE601E7
:100CC000AD85B0E0C3E5DCE6E3E3FCE6C4DAECB313
:100CD000E260ECBB2DCB90DC9DDC6CDC1BDD86E6A2
:100CE0000CDEF60182859385ABDEB6DD2DDD2A981C
:100CF000E3E3FCE6B6DAF601C285D385E3E3FCE67E
:100D000084DAE6018D85A9DAACDAB0DDECB3E26015
:100D1000ECBB0ECB79DCE6012A9685DC4BDCFADCF9
:100D20008DE6EBDDF60181858093236A0C949809AA
:100D30008DE2E3DDE8E0F8E041DE17DD0C94980990
:100D400069DCE6012A966FDC35DC43DC80E7D5DD23
:100D5000C4DD02DCEDCA5EDCE6012A9664DC2ADC36
:100D6000D9DC82E5CADD7FCAFFFFFFFFFFFFFFFF7F
:00000001FF
; 
; *** EOF 
