@ba13 ; Affinity 
@bb01 ; MemBank 
@bc03 ; Command 
:020000020A00F2
:1000000022C1000081E07DC082E07BC083E079C036
:1000100084E077C085E075C086E073C087E071C07A
:1000200088E06FC089E06DC08AE06BC08BE069C07A
:100030006EC0000071D077C08EE063C08FE061C0F9
:1000400080E15FC081E15DC082E15BC083E159C0B6
:1000500084E157C085E155C086E153C087E151C0B6
:10006000C3C0000089E14DC08AE14BC08BE149C0AB
:100070008CE147C08DE145C08EE143C0A0C00000C7
:1000800080E23FC081E23DC082E23BC083E239C0F2
:1000900084E237C085E235C086E233C087E231C0F2
:1000A00088E22FC089E22DC08AE22BC08BE229C0F2
:1000B0008CE227C08DE225C08EE223C08FE221C0F2
:1000C00080E31FC081E31DC082E31BC083E319C02E
:1000D00084E317C068C0000086E313C087E311C043
:1000E00088E30FC089E30DC08AE30BC08BE309C02E
:1000F0008CE307C08DE305C08EE303C08FE301C02E
:10010000A2C02A9820926608E82F0C948F183F010D
:10011000EFB7EF93F50109943091160B3093160B5E
:100120002092150B1895FF93EF93EFB7EF93DF93A2
:10013000CF93BF93AF93F894E0911C0BF0911D0BFC
:100140007894A0916B6AB0916C6AE0936B6AF093BB
:100150006C6AEA1BE0936D6AFB0BF0936E6A68941D
:10016000B2E0E037FB0708F4ED9AB2E0E43FFB07AA
:1001700030F0E894B4E0E833FB0708F4ED9AF1E4DA
:10018000E091866AE21104C07499F061E3E003C073
:100190007599F061E4E0E0934102F093140BE09173
:1001A0006F6AFBE109943F01F701319130936208D6
:1001B000EE2EF301E21218952092650818953F0182
:1001C0003091546AE091566AF091576AE31302C085
:1001D00031E03193309120083193F091556AEF135B
:1001E000E093566AF30118953F01E091676AF09138
:1001F000686A309110063193309111063083E09196
:10020000696AF0916A6A319130930C0631913093AA
:10021000080631913093010631913093A00031915D
:100220003093676A31913093686A319130930B064D
:10023000319130930A06E093696AF0936A6AF30198
:1002400018950CD0128AA895F8942224E8EDE09332
:100250003400E5E8E0930110E8EDE4BF20921001DE
:10026000EFE1FAE6EDBFFEBFE0E0FAE6C6ECDCE067
:1002700021922197E9F7A0910268A03110F0EBE1FB
:1002800031C1E8E020923204E0933104E09330047D
:10029000E0E6F8E02682A0E6B0E0A087B1872582FC
:1002A000A3E0A783A2ECA6832A982198209A229AF9
:1002B000E8E0E0935104E0935004E0E2F8E02682A5
:1002C000A0E6B0E0A087B187A0E8A583A3E0A7835C
:1002D00041984098E8E0E0935204E9E4E093110289
:1002E0004298ACE4A0931202ADE4A0931302A3E001
:1002F000A0934102E0E0FBE0208221822486258653
:10030000AFEFA683A3E0A083E0E1FBE02082A2E0C0
:10031000A183A1E4A483A1E0A683A583A3E0A08395
:10032000A0914101A0FDFCCFA1E2A0934001E0E833
:10033000F8E02682A0E8B1E0A087B1872582A3E09B
:10034000A783A0E4A683889A809AE0EAF0E0A1E877
:10035000A083A1E8A283E0E0F6E0A1E1A083A0E011
:10036000A183A3E0A283A0E0A383A0E0A483A1E0F3
:10037000A0930506A0E0A087E4E0E0937604E0EC1B
:10038000E093A206EFE7E093A306E1E4E093A00682
:10039000209274042092750464986598A8E0A09354
:1003A0005404A0935504A0935604A09357042D9A87
:1003B000259A44984598469847982B9A239A0E94E4
:1003C0001F19A895E8EDE4BFE7E0E0930001C0E065
:1003D000D6E7E9EFFCE6F9D6C0E2D6E7EFEFFCE6B8
:1003E000F4D6C0E4D6E7E5E0FDE6EFD6C0E6D6E712
:1003F000EBE0FDE6EAD6C0E8D6E7E1E1FDE6E5D6CA
:100400000E94591A0E9445190E944819B9D690D5E0
:100410000E94E11907C108953F2C089599C039C180
:1004200038C1A2C036C135C134C133C132C131C1B6
:1004300030C1A3C02EC12DC12CC101C008951ED54D
:10044000F2D483E369D6C5E2DDE68EE081D68FE0A3
:100450008093246DE601898580FD2C9880FF2C9A7D
:10046000AED41BC1861B0AF48195961B0AF49195A4
:10047000890F8795C82FB6C60C9408000C94090004
:100480000C940A000C940B000C940C000C940D00BE
:100490000C940E000C940F000C9410000C9411009E
:1004A0000C9412000C9413000C9414000C9415007E
:1004B0000C9416000C9417000C9418000C9419005E
:1004C0000C941A000C941B000C941C000C941D003E
:1004D0000C941E000C941F000C9420000C9421001E
:1004E0000C9422000C9423000C9424000C942500FE
:1004F0000C9426000C9427000C9428000C942900DE
:100500000C942A000C942B000C942C000C942D00BD
:100510000C942E000C942F000C9430000C9431009D
:100520000C9432000C9433000C9434000C9435007D
:100530000C9436000C9437000C9438000C9439005D
:100540000C943A000C943B000C943C000C943D003D
:1005500089E6E2D50C944D138DE2DED5E8E0F8E0B3
:1005600067D63AD50C944D138ED4E6012A9694D4CE
:100570005AD407D582E5D0D5C9CF80D454D483E7E7
:10058000CBD58BE08093246DC5E2DDE68EE00E9442
:10059000A8186091206A7091216A0E943B1A6093AA
:1005A000256D7093266D60914C6A70914D6A6093D1
:1005B000276D7093286D60914B6A6093296D8091CF
:1005C0001B6D80932A6D8091276A80932B6D80919B
:1005D000296A80932C6DB091176DB0932D6DB091F9
:1005E000186DB0932E6DB091196DB0932F6DB091C1
:1005F0001A6DB093306D80913B6A90913C6AFC011A
:100600009295892B8093326D80913A6AEF2BE82B7B
:1006100082958E2B8093316DC0E2DAE68AE198D51F
:10062000CED33BC0789439C02092007020921970CC
:100630002092327020924B702092647020927D70D4
:1006400020920071209219712092327120924B7188
:100650002092647120927D7108952A98E0E5F0E07F
:100660003199FCCF3197E1F7319BFECF0895E29AA3
:100670008FD4BBD485E661D610C0E29A89D4B8D4B1
:100680008EE75BD60AC0E29A83D4B5D483E255D60E
:1006900004C07ED4A4D48EE200C06091236A80910D
:1006A0002B6A90912D6AE9EFFCE6DCDEB093176DC2
:1006B00080912F6A9091316AEFEFFCE6D3DEB09320
:1006C000186D8091336A9091356AE5E0FDE6CADEE7
:1006D000B093196D8091376A9091396AEBE0FDE62D
:1006E000C1DEB0931A6DC091256AE1E1FDE67AD5CD
:1006F000B0931B6DC3D507D6EFE1FAE6EDBFFEBFA1
:10070000B9D51ED066D481D48FD442D4C0EAD6E7FE
:10071000E0913A6A80913B6A90913C6AE9938993AF
:100720009993E8E5FAE621928081219290812192C5
:1007300089939993C0EAD6E787E113D5E88380C40B
:10074000E599FECFE19970DFE79B66DEE2992FD451
:10075000ECB3E973ECBB01D085C07FDF28D0CC249B
:10076000E60187E169D0F093646A87E165D0F09390
:10077000646A87E161D0F093646A87E15DD0F093A9
:10078000646A87E159D0F093646A8FE755D0FD2DF4
:10079000E1E0E081E7FD03D0E69B04D00895E69A0E
:1007A000E79A0895E1E0DE26E1E0FE260895A895A7
:1007B000209266082092000BECE0F0E0E0930A0B38
:1007C000F0930B0BE0E0FFE3E0930C0BF0930D0BC9
:1007D000E2ECE0936608209AE2E4E0932608409A6F
:1007E0002092300287E0A5E1B8E6CCE0D8E61D9083
:1007F0003199FECFE3E0E093000B10922208E0E095
:10080000FFE81D90109222080090640807FEFCCFBC
:10081000009061081090600802FC29CF1992E12530
:10082000E0818A9589F36AF7E093646A209226084A
:10083000E2E0E093300208952196E0E0FFE80090C6
:10084000640807FEFCCF009061081090600802FC6D
:100850000ECF1992E125E0818A958AF7F091646ABA
:10086000FE2B0895EBE4F4E15F0120923002E2E810
:10087000E0932608E9E1E093566AF092576AE09324
:10088000546AE2E3E093556AE1E0E093050BE59AF0
:10089000D092486A0895209AE9E1E093566AF0926E
:1008A000576AE093546AE2E3E093556AE0E8E09324
:1008B00025082A98E0E6F4E15F01E0E0F6E065C291
:1008C000FF2DE9E13191EE2EE69903C030FD2A9A21
:1008D00030FF2A9831913093620831913093620849
:1008E000EE2E22E3E0E2E0936508EBE7F4E15F013E
:1008F000E0E0F6E04AC2E2E3E093566AF092576A1B
:10090000E093546AEBE4E093556A2A98ECE8F4E14A
:100910005F01E0E0F6E039C2FF2DE2E33191EE2E17
:10092000E69903C030FD2A9A30FF2A98319130931E
:100930006208319130936208EE2E2BE4E0E2E093FE
:100940006508E7EAF4E15F01E0E0F6E01EC2EBE4EF
:10095000E093566AF092576AE093546AE4E6E093B3
:10096000556A2A98E8EBF4E15F01E0E0F6E00DC299
:10097000FF2DEBE43191EE2EE69903C030FD2A9A6B
:1009800030FF2A9831913093620831913093620898
:10099000EE2E24E6E0E2E0936508E3EDF4E15F018A
:1009A000E0E0F6E0F2C1E4E6E093566AF092576ABE
:1009B000E093546AEDE7E093556A2A98E4EEF4E197
:1009C0005F01E0E0F6E0E1C1FF2DE4E63191EE2EBB
:1009D000E69903C030FD2A9A30FF2A98319130936E
:1009E0006208319130936208EE2E2DE7E0E2E09349
:1009F0006508EFEFF4E15F01E0E0F6E0C6C1EDE786
:100A0000E093566AF092576AE093546AEEEFE093EF
:100A1000556A2A98E0E1F5E15F01E0E0F6E0B5C152
:100A2000FF2DEDE73191EE2EE69903C030FD2A9AB5
:100A300030FF2A98319130936208319130936208E7
:100A4000EE2E2EEFE0E2E0936508EBE2F5E15F01C8
:100A5000E0E6FEE19AC12A98EAE6E093576AE8E503
:100A6000E093566AE093546AECE5E093556A8F2C64
:100A7000F6E7E0EA7F012A98E2E4F5E15F01E4E9C4
:100A8000FBE083C12A98E69911C0E0910268E0304A
:100A900069F42A9AF70131913093620831913093C9
:100AA0006208EE2E28EBE0E2E0936508ECE5F5E164
:100AB0005F01E0E0F6E069C12A98E69911C0E09193
:100AC0000268E13069F42A9AF701319130936208A3
:100AD000319130936208EE2E28EBE0E2E093650856
:100AE000E6E7F5E15F01E0E0F6E04FC12A98E6991C
:100AF00011C0E0910268E23069F42A9AF70131915D
:100B000030936208319130936208EE2E28EBE0E2D8
:100B1000E0936508E0E9F5E15F01E0E0F6E035C16A
:100B20002A98E69911C0E0910268E33069F42A9AA4
:100B3000F701319130936208319130936208EE2EC3
:100B400028EBE0E2E0936508EAEAF5E15F01E0E026
:100B5000F6E01BC12A98E69911C0E0910268E430E2
:100B600069F42A9AF70131913093620831913093F8
:100B70006208EE2E28EBE0E2E0936508E4ECF5E194
:100B80005F01E0E0F6E001C12A98E69911C0E0912A
:100B90000268E53069F42A9AF701319130936208CE
:100BA000319130936208EE2E28EBE0E2E093650885
:100BB000EEEDF5E15F01E0E0F6E0E7C02A98E699A6
:100BC00011C0E0910268E63069F42A9AF701319188
:100BD00030936208319130936208EE2E28EBE0E208
:100BE000E0936508E8EFF5E15F01E0E0F6E0CDC0F5
:100BF0002A98E69911C0E0910268E73069F42A9AD0
:100C0000F701319130936208319130936208EE2EF2
:100C100028EBE0E2E0936508E2E1F6E15F01E0E065
:100C2000F6E0B3C02A98E69911C0E0910268E83076
:100C300069F42A9AF7013191309362083191309327
:100C40006208EE2E28EBE0E2E0936508ECE2F6E1C4
:100C50005F01E0E0F6E099C02A98E69911C0E091C2
:100C60000268E93069F42A9AF701319130936208F9
:100C7000319130936208EE2E28EBE0E2E0936508B4
:100C8000E6E4F6E15F01E0E0F6E07FC02A98E6994D
:100C900011C0E0910268EA3069F42A9AF7013191B3
:100CA00030936208319130936208EE2E28EBE0E237
:100CB000E0936508E0E6F6E15F01E0E0F6E065C09C
:100CC0002A98E69911C0E0910268EB3069F42A9AFB
:100CD000F701319130936208319130936208EE2E22
:100CE00028EBE0E2E0936508EAE7F6E15F01E0E087
:100CF000F6E04BC02A98E69911C0E0910268EC300A
:100D000069F42A9AF7013191309362083191309356
:100D10006208EE2E28EBE0E2E0936508E4E9F6E1F4
:100D20005F01E0E0F6E031C02A98E69911C0E09159
:100D30000268ED3069F42A9AF70131913093620824
:100D4000319130936208EE2E28EBE0E2E0936508E3
:100D5000EEEAF6E15F01E0E0F6E017C02A982A9893
:100D6000E6EBF6E15F01E0E0F6E00FC02092260836
:100D7000E2E0E0933002F82CE5982A98209265088A
:100D80002092050BE0E0F0E000C0E0930C0BF09344
:100D90000D0BE1E0E093060BEF91EFBFF301189527
:100DA0000C94A8180C94A3180C94B118E601E885CB
:100DB000E03120F4F0E0E25FFD4E09946ACC9FD070
:100DC000ECE1FDE687E1EEDF87C099D0ECE1FDE6DE
:100DD0008DE0E8DFECE0F8E683E0E4DF83E0E0DFED
:100DE0006FC08DD0D32DCEE780E8E0E0F9E6DADF02
:100DF00002C085D000C088D082D0F6018FE0D2DF5B
:100E0000D32DCEE7AFE7B0E043DBF32DEC2D3F96DB
:100E1000A193B193C193D19353C0E60188E1C4DF9C
:100E200009F408952ACCE601A2E1B0E031DBF60135
:100E3000739671C0DD2DCEE7AFE7B0E029DBF60198
:100E40003F9669C0E091516AE211E150E093516A26
:100E5000E2111FCCE601E985F0914D6AEF23FA9586
:100E6000F0934D6AE21115CC83C0E601E985F0915B
:100E7000F86CF211EF130DCC08950895E091526AC9
:100E8000E0FF07CC0895E091526AE0FD04C0809134
:100E90004E6A8211FECB0895EFDAA991B9910D0146
:100EA0000128AE17BF07021051F4E8DAA991B991F1
:100EB0000D010128AE17BF07021009F40895E9CB10
:100EC000D32DCC2DA2E1B0E0E3DAF32DEC2D739617
:100ED000A193B193C193D193D32DCC2D87E164DF3E
:100EE000E9930895DF93CF93C82F0E94D018EF9114
:100EF000FF91A193B193C193D193EF010895CC2DAC
:100F0000CA9504C0C4E602C0CDE700C0D32D8881D5
:100F100081608993089501900A12AFCB01900B1262
:100F2000ACCB01900C12A9CB01900D12A6CB089569
:100F3000E3E0E0933D6AE0E0F2E76F01E0E0F0E734
:100F40007F013F2E2092526AE4E0ECBBDFD01DD03F
:100F50000FC0E7990895FD2DE2E0808180FD01D06A
:100F60000895E091516AE211EA95E093516A08957B
:100F7000E0914801FFE0F491F0934D6A2092516AAC
:100F80000895EFE0E093516A089520924E6A089523
:100F9000F32DE0E02082F32DE9E12082E2E32082DC
:100FA000EBE42082E4E62082EDE720820895F0E77A
:100FB000FF2E3F2E39CBE4E1F9E62192E033E9F749
:100FC00008952092480120924901E1E0E093430115
:100FD0000895E0E8F9E6ABC0E4E8F9E6A8C0E8E87F
:100FE000F9E6A5C0E0E9F9E6A2C0ECE8F9E69FC0A1
:100FF000E4E9F9E69CC0E8E9F9E699C0E091646AA1
:101000002092646AE21139CB0895E7990895DD2DA5
:10101000C5E0E881F091536AF395E093536AEF17C6
:1010200009F40895E29A2FCBDD2DC0E0ED85E09321
:101030003D6AE79991CAEB85E77FF9E00C941819AE
:1010400002D0EBDEB3CECAE1DD2DCC2E80E090E005
:10105000E0E0F9E609901190802901249029E83018
:10106000C9F7803011F0921114CBE0E009F0E1E013
:10107000E093526A08952092F86C2092F46CECB3DD
:10108000E260ECBB089501D037C0E0E0F9E60E94D1
:101090005012EF010E943C12E993F9930E943E1214
:1010A000E993F9930E94BA18E993F9930E94BD1845
:1010B000E993F9930E944012E993F9930E94421236
:1010C000E993F99382E00EDF81E00CDF83E00ADF31
:1010D00084E008DF87E006DF85E004DF86E002DFEA
:1010E000E0E1F1E180E15EDEE8E1F0E0E993F9932F
:1010F000E0910A68E993089509D081E08993E8E0D6
:10110000F9E68CE04FDE299229920895CCE1DDE6E4
:10111000E0E0F9E688E046CE0C949D19ECE3F89403
:10112000AFE1BAE6ADBFBEBFA2D0A895FECF808129
:10113000918101968083918328F482819381019625
:10114000828393830895019009928A95E1F7089527
:1011500029928A95E9F708959FEF99938A95E9F77F
:101160000895E0E0FFE80990E025E0818A95D9F74D
:10117000EE230895E0E0F0E00895E0E0F0E0089567
:10118000E4EDFCE60E947412C4EBDAE60E947612EB
:10119000E4EBFCE60E947412C4EBDAE60C947612DF
:1011A000E4EDFCE60E9478120C946812799FE0014D
:1011B000689FD001699FB00DC11DD21D789FB00DF1
:1011C000C11DD21D089580E404C080E202C080E108
:1011D00000C0C083D1838283238224822582B8CF3A
:1011E0000DD007C00BD003C009D0AA0FBB1FAA0F98
:1011F000BB1FAA0FBB1FAA0FBB1F0895B381A081FD
:10120000AB0FB181B21DDC91CC93A481B581AD1B34
:10121000B209AC0FB21DA483B583C281D381D3952B
:10122000DC1708F0DD27D3830895E2E0F2E000C088
:10123000EF23F09500903E6A0F22E02904C0E0E021
:1012400002C0EFEF00C0E0933E6A00C0E0913E6A4A
:101250000C944612EF23F09500903D6A0F22E0298E
:1012600006C0E0E004C0E5E502C0EFEF00C0E09397
:101270003D6A00C0E0913D6A0C944412939904C009
:10128000E5E5B19B0C94721207C0442455240895DF
:10129000AA980895AA9A0895E0914408E7FF08954E
:1012A000E0914008E093007408958F93892F0AD04D
:1012B0008F9108C08F93892F05D08F9100C002D0E5
:1012C0008CE23BC001D003C08F93829501C08F9305
:1012D0008F70805D8A3308F0895F2FD08F910895D9
:1012E0008AE02BD08DE029C00F01451451F0F09118
:1012F0004408F5FF06C0F5E7E52DF081F0934208BC
:101300005394F0010895451459F0F0914408F5FF05
:10131000FACFF5E7E52DF081F09342085394F3CF2F
:101320000895C42DD5E70190002029F00882C395C7
:10133000C511F9CFCA954C2ED8CF0F01F201FA95FD
:10134000EF1719F0F5E780834394CFCF8F938E2F5B
:10135000F201FA95EF1719F0F5E7808343948F9126
:1013600008958991ACDF9A95E1F7089589918211EA
:1013700088130895E2DFFACFCCE8D3EBF7DF809152
:101380000A68A0DFCCE9D3EBF1DFBDCF0A0D1B5B10
:1013900034346D2E2E2E5B424C442D005D1B5B6D54
:1013A0000A0D0000CCEAD3EBE1DFADCF0A0D1B5BE9
:1013B00034336D2E2E2E5B5550445D1B5B6D0A0D34
:1013C0000000C4EDD3EBD2DFC0E0D8E690E1C9DF86
:1013D00087DF99CF0A0D1B5B34326D2E2E2E5B41B9
:1013E00050505D1B5B6D202D2000E091676AF091ED
:1013F000686AEF2B0895CF93C091676AC21106C047
:10140000C091686AC21102C0CF9103C0CF91889485
:101410000895CF93C2E0C0930A06C1E0C0930D06C1
:10142000C191C0930006C191C0930206C191C093BF
:101430000306C191C0930406C191C0930C06C191EB
:10144000C0930806C191C0930106C191C093A0004A
:10145000C191C093676AC191C093686AC191C093FA
:101460000B06C191C0930A06E093696AF0936A6A19
:10147000CF910894089576956795769567957695BA
:101480006795769567958091061190910711861B57
:10149000970B609104117091051188DEC695B79580
:1014A000C695B795C695B795C695B7957C2F6B2F02
:1014B0000895E0E0E0936F6A2092996A0895FFFF33
:1016000026C03EC07AC192C1B0C1C8C1E7C1FAC10B
:101610000AC212C21AC222C234C23CC03FC069C050
:10162000B5C0C7C0E1C0E9C0F1C0F9C001C109C17E
:1016300011C119C121C129C131C13DC13EC13FC143
:1016400040C148C1E091446AE395E093446AEC9953
:101650000C940B12E2E0E093110BF89420921A0B19
:1016600020921B0B789420926B6A20926C6A9924CA
:1016700003C0E3E09E2E00C0E998ED98E1E005C2CA
:10168000ED99E5CF1EF49394E1E0FFC1E92DE4313B
:1016900008F4EDCF9092756AEEE0F7C1ED99D7CFDF
:1016A00036F3EAE8F0ECB5DEEE27749BE395E093C1
:1016B000866AE998EA98EB982092766A2092746A92
:1016C000E7E7FAE6CFE02192CA95E9F7E091456AAB
:1016D000E395E43650F0E091446AF091466AE09375
:1016E000466AEF1BE093476AE0E0E093456AE2E177
:1016F000CCC1ED99A7CFE091766AEF3008F0A2CF88
:10170000F7E7EF0FFAE6F21D9192E757E093766A5A
:10171000E091746AE925E093746A46F509F092CF86
:10172000E3E0E093110BE091406AF091416A319659
:10173000E093406AF093416AE091426AF091436A13
:10174000E21DF21DE093426AF093436AE0916D6AF4
:10175000F0916E6AF695E795F695E795F695E7951B
:10176000F211EFEFE0939D6AE1E18FC1E0916D6AC4
:10177000F0916E6AF695E795F695E795F695E795FB
:10178000F211EFEFE0939B6AE0E17FC1ED9B0EF475
:1017900059CFE0916D6AF0916E6AF695E795F695EE
:1017A000E795F695E795F211EFEFE0939C6AE2E199
:1017B0006CC1ED9B0EF046CFE2E0E093110B20925E
:1017C0006B6A20926C6AE0916D6AF0916E6AF69590
:1017D000E795F695E795F695E795F211EFEFE0932B
:1017E0009E6A62D1E2E051C1E091766AE03019F47C
:1017F000E2ECFFEB0EDEE3E176C0E091766AE030EA
:1018000019F4E6EDFFEB05DEE4E170C0E091766AE5
:10181000E03019F4EAEEFFEBFCDDE5E164C0E091B5
:10182000766AE03019F4EEEFFFEBF3DDE6E15EC03F
:10183000E091766AE03019F4E2E1F0ECEADDE7E10C
:1018400052C0E091766AE03019F4E6E2F0ECE1DDB6
:10185000E8E14CC0E091766AE03019F4EAE3F0EC9C
:10186000D8DDE9E140C0E091766AE03019F4EEE4B9
:10187000F0ECCFDDEAE13AC0E091766AE03019F4AD
:101880002D9800002D9AEBE12EC0E091766AE030B1
:1018900019F4EEE9F0ECBDDDECE128C0E091766AE8
:1018A000E03039F4E0910A00E295E095EF70E093C2
:1018B0003A6AEDE118C0EEE119C0EFE114C0E0E2D0
:1018C00015C0E091766AE03019F4E6E7F0ECA1DDAE
:1018D000E1E209C0E091766AE03019F4E2E6F0EC6A
:1018E00098DDEFE003C0990C90F8CFC01EF090FC9B
:1018F000A9CECBC090FEA6CEC8C00EF0A8CEC09197
:10190000996AD0914C6AEB99D860D3FFC070D0919E
:101910004C6AEB99D260EA99D0FFCC7FD1FFC370BB
:10192000C093996A749B7599A4CE00C0E99AD0912E
:101930004C6AC0910A0BCD23D0914C6ACD0FCF7069
:10194000C0939A6AC15BDCE0F001CD9FF8940092ED
:101950001C0B10921D0B78940F01E2EBF0EC59DD9B
:10196000E0E0E093110BE4E090C02D9800002D9A88
:10197000F091996AE091896AF0FDE0938208E09124
:101980008A6AF1FDE0938208E8E6F1E0F894E093DA
:101990001C0BF0931D0B7894E5E077C0D0914C6A56
:1019A000C0910A0BCD23D0914C6ACD0FCF70CE5A87
:1019B000D0919A6ACD1BDCE0F001CD9FF8940092A3
:1019C0001C0B10921D0B78940F01E0910A00E29518
:1019D000E095EF70E0933B6AE6E057C02D98000079
:1019E0002D9AF091996AE0918B6AF2FDE09382085A
:1019F000E0EFF0E0F894E0931C0BF0931D0B78946B
:101A0000E7E043C0F091996AE0918C6AF3FDE093BE
:101A10008208E0EEF1E0F894E0931C0BF0931D0BCC
:101A20007894E8E032C0F091996AE0918D6AF4FD13
:101A3000E0938208E9E029C0F091996AE0918E6A0A
:101A4000F5FDE0938208EAE020C0F091996AE09108
:101A50008F6AF6FDE0938208EBE017C0F091996A77
:101A6000E091906AF7FDE0938208E0910A00E29528
:101A7000E095EF70E0933C6AE2E0E093110BECE05C
:101A800004C02092996AE0E000C0E0936F6AAF91D1
:101A9000BF91CF91DF91E1E0E093150BEF91EFBFA4
:101AA000EF91FF9108950895C7E7DAE6A091766A6D
:101AB0002092B16AE881E15AF0E0F24E0994FFC049
:101AC00010C10FC10EC10DC10CC10BC10AC109C1AA
:101AD00008C107C106C105C104C103C102C101C1DA
:101AE00000C1FFC0FEC0FDC0FCC0FBC0FAC0F9C011
:101AF000F8C0F7C0F6C0F5C0F4C0F3C0F2C0F1C042
:101B0000F0C0EFC0EEC0EDC0ECC0EBC0EAC0E9C071
:101B1000E8C0E7C0E6C0E5C0E4C0E3C0E2C0E1C0A1
:101B2000E0C0DFC0DEC0DDC0DCC0DBC0DAC0D9C0D1
:101B3000D8C0D7C0D6C0D5C0D4C0D3C0D2C0D1C001
:101B4000D0C0CFC0CEC0CDC0CCC0CBC0CAC0C9C031
:101B5000C8C0C7C0C6C0C5C0C4C0C3C0C2C0C1C061
:101B6000C0C0BFC0BEC0BDC0BCC0BBC0BAC0B9C091
:101B7000B8C0B7C0B6C0B5C0B4C0B3C0B2C0B1C0C1
:101B8000B0C0AFC0AEC0ADC0ACC0ABC0AAC0A9C0F1
:101B9000A8C0A7C0A6C0A5C0A4C0A3C0A2C0A0C022
:101BA0009FC09EC09DC09CC09BC09AC099C098C059
:101BB00097C096C095C094C093C092C091C09FC07A
:101BC0009EC09DC09CC09BC09AC099C098C097C041
:101BD00096C095C094C093C092C091C090C08FC071
:101BE0008EC08DC08CC08BC08AC089C088C087C0A1
:101BF00086C085C084C083C082C081C080C07FC0D1
:101C00007EC07DC07CC07BC07AC079C078C077C000
:101C100076C075C074C073C072C071C070C06FC030
:101C20006EC06DC06CC06BC06AC069C068C067C060
:101C300066C065C064C063C062C061C060C060C08F
:101C40005FC05EC05DC05CC05BC05AC059C058C0B8
:101C500057C056C055C054C053C052C051C050C0E8
:101C60004FC04EC04DC04CC04BC04AC049C048C018
:101C700047C046C045C044C043C042C041C040C048
:101C80003FC03EC03DC03CC03BC03AC039C01AC096
:101C900019C018C017C016C015C014C013C012C098
:101CA00011C010C00FC00EC00DC00CC00BC00AC0C8
:101CB00009C008C007C006C00DC009C00EC0A150B1
:101CC000219636C0A093B26AC093AF6A68C1A15092
:101CD0002196C6C0A1502196C4C0A1502196BBC078
:101CE00000C0EA9AE881F0914C6AB0914C6AB5FF65
:101CF000EF13CCC0A15021961BC0EB9AFBCF4FC174
:101D0000EA9AE981E330E88111F4E03C79F0F0915E
:101D10004C6AB0914C6AB5FDEF13B8C0E981F091FF
:101D20004C6AEF13B3C0A250229602C0EB9AFBCFCD
:101D3000A093B26AC093AF6AE881E295EF70ED5567
:101D4000F0E0F14E09940FC024C039C038C0ABC0D8
:101D5000AAC0A9C0A8C0D3C0D2C0D9C0D4C055C0E1
:101D600054C0FFC0FCC0E991EF70E754F0E0F14EC1
:101D70000994EDC0F0C017C116C10DC10CC10BC153
:101D80000AC109C108C1A7C0A6C005C104C103C1D9
:101D90009EC0E991EF70E153F0E0F14E0994FBC071
:101DA000FAC091C090C0F7C0F6C0F5C0F4C0F3C04F
:101DB000F2C0F1C0F0C0EFC0EEC0EDC0ECC0E991E0
:101DC000EF71EB51F0E0F14E0994E5C0E4C0E3C0DF
:101DD000E2C0E1C0E0C0DFC0DEC0DDC0DCC0DBC00F
:101DE000DAC0D9C0D8C0D7C0D6C0D5C0D4C0D3C03F
:101DF000D2C0D1C0D0C0CFC0CEC0CDC0CCC0CBC06F
:101E0000CAC059C05CC0C7C052C0E991EF71E55F5C
:101E1000F0E0F04E09946FC062C065C0BCC0BBC0AA
:101E2000BAC0B9C0B8C0B7C0B6C0B5C0B4C0B3C0FE
:101E3000B2C0B1C0B0C0AFC0AEC0ADC0ACC0ABC02E
:101E4000AAC0A9C0A8C06FC072C075C078C07BC04E
:101E50004EC061C064C0A093B26AC093AF6A18C09C
:101E60009AC099C08F93E0EAFAE6A091B26A8A2FED
:101E70008C0FB081A193BA17A081B991BA07B19321
:101E80008C13FACFC091AF6A8F910895E3E291C0AD
:101E9000EB99FCCFE881E03011F0ECE18AC0EB99DE
:101EA000F5CFEDE186C0EB99F1CFE1E082C0EB998F
:101EB000EDCFE2E07EC0EB99E9CFE3E07AC0EB99A9
:101EC000E5CFE4E076C0EB99E1CFEFE172C0EB99AA
:101ED000DDCFE0E26EC0EB99D9CFE1E26AC0EB99C9
:101EE000D5CFE5E066C0EB99D1CFE6E062C0EB99D3
:101EF000CDCFE7E05EC0EB99C9CFE8E05AC0EB99DF
:101F0000C5CFE9E056C0EB99C1CFEAE052C0EB99EA
:101F1000BDCFEBE04EC0EB99B9CFECE04AC0EB99F6
:101F2000B5CFEDE046C0EB99B1CFEEE042C0EB9902
:101F3000ADCFEFE03EC0EB99A9CFE0E13AC0EB991D
:101F4000A5CFE1E136C0EB99A1CFE2E132C0EB9938
:101F50009DCFE3E12EC0EB9999CFE4E12AC0E5E102
:101F600028C0E091B26AE43011F048F418C0E8816A
:101F7000E3FD02C0E6E11DC075DFE7E11AC0E881BC
:101F8000FE2FE370F3FD04C0F2FF05C0E8E111C0CD
:101F900069DFE9E10EC0EB9979CFEBE10AC0EB997B
:101FA00075CFE2E206C0EB9971CFEEE102C0EAE143
:101FB00000C0E093B16AE091756AE093B06A089559
:101FC000089515020000010002812A6A0001000044
:101FD00000810000000215020000010002812C6A4D
:101FE0000001000000810000000215020000010154
:101FF00002812E6A0001000000810000000215022B
:10200000000001010281306A00010000008100002F
:1020100000021502000001020281326A0001000084
:102020000081000000021502000001020281346AF2
:102030000001000000810000000215020000010301
:102040000281366A000100000081000000021502D2
:10205000000001030281386A0001000000810000D5
:1020600000021502000001090280266A000100003A
:1020700000810000000215020000010A0280286AA7
:1020800000010000008100000002150200000107AD
:102090000281226A00010000008100000002150296
:1020A000000001130281246A000100000081000089
:1020B00000021106000001420081656A0001014230
:1020C0000081206A00010000008100000002FFFF83
:00000001FF
; 
; *** EOF 
