@ba13 ; Affinity 
@bb01 ; MemBank 
@bc03 ; Command 
:020000020A00F2
:1000000027C1000081E084C082E082C083E080C01C
:1000100084E07EC085E07CC086E07AC087E078C05E
:1000200088E076C089E074C08AE072C08BE070C05E
:1000300075C0000078D07EC08EE06AC08FE068C0D6
:1000400080E166C081E164C082E162C083E160C09A
:1000500084E15EC085E15CC086E15AC087E158C09A
:10006000CAC0000089E154C08AE152C08BE150C08F
:100070008CE14EC08DE14CC08EE14AC0A7C00000AB
:1000800080E246C081E244C082E242C083E240C0D6
:1000900084E23EC085E23CC086E23AC087E238C0D6
:1000A00088E236C089E234C08AE232C08BE230C0D6
:1000B0008CE22EC08DE22CC08EE22AC08FE228C0D6
:1000C00080E326C081E324C082E322C083E320C012
:1000D00084E31EC06FC0000086E31AC087E318C027
:1000E00088E316C089E314C08AE312C08BE310C012
:1000F0008CE30EC08DE30CC08EE30AC08FE308C012
:1001000001003FC10201000056AC1E66982E5BB78D
:100110002A9820926608E82F0C94FA183F01EFB74E
:10012000EF93F50109943091160B3093160B209242
:10013000150B1895FF93EF93EFB7EF93DF93CF93E2
:10014000BF93AF93F894E0911C0BF0911D0B789442
:10015000A0916F6AB091706AE0936F6AF093706AD1
:10016000EA1BE093716AFB0BF093726A6894B2E049
:10017000E037FB0708F4ED9AB2E0E43FFB0730F00C
:10018000E894B4E0E833FB0708F4ED9AF1E4E09179
:100190008A6AE21104C07499F061E3E003C07599C2
:1001A000F061E4E0E0934102F093140BE091736A94
:1001B000FBE109943F01F701319130936208EE2E83
:1001C000F301E21218952092650818953F013091CD
:1001D000586AE0915A6AF0915B6AE31302C031E019
:1001E0003193309120083193F091596AEF13E093E5
:1001F0005A6AF30118953F01E0916B6AF0916C6ABD
:10020000309110063193309111063083E0916D6A80
:10021000F0916E6A319130930C063191309308065B
:1002200031913093010631913093A0003191309398
:100230006B6A319130936C6A319130930B06319136
:1002400030930A06E0936D6AF0936E6AF301189595
:10025000A895F8942224E8EDE0933400E5E8E093D3
:100260000110E8EDE4BF20921001EFE1FAE6EDBFE6
:10027000FEBFE0E0FAE6C6ECDCE021922197E9F768
:10028000A0910268A03110F0EBE131C1E8E02092CA
:100290003204E0933104E0933004E0E6F8E0268293
:1002A000A0E6B0E0A087B1872582A3E0A783A2ECF7
:1002B000A6832A982198209A229AE8E0E093510494
:1002C000E0935004E0E2F8E02682A0E6B0E0A087E8
:1002D000B187A0E8A583A3E0A78341984098E8E010
:1002E000E0935204E9E4E09311024298ACE4A09355
:1002F0001202ADE4A0931302A3E0A0934102E0E058
:10030000FBE02082218224862586AFEFA683A3E02E
:10031000A083E0E1FBE02082A2E0A183A1E4A4832A
:10032000A1E0A683A583A3E0A083A0914101A0FD45
:10033000FCCFA1E2A0934001E0E8F8E02682A0E82B
:10034000B1E0A087B1872582A3E0A783A0E4A683BC
:10035000889A809AE0EAF0E0A1E8A083A1E8A2836D
:10036000E0E0F6E0A1E1A083A0E0A183A3E0A28306
:10037000A0E0A383A0E0A483A1E0A0930506A0E0F1
:10038000A087E4E0E0937604E0ECE093A206EFE7D8
:10039000E093A306E1E4E093A00620927404209287
:1003A000750464986598A8E0A0935404A09355043C
:1003B000A0935604A09357042D9A259A44984598E3
:1003C000469847982B9A239A0E948A19A895E8ED97
:1003D000E4BFE7E0E0930001C0E0D6E7EDEFFCE624
:1003E0005FD7C0E2D6E7E3E0FDE65AD7C0E4D6E740
:1003F000E9E0FDE655D7C0E6D6E7EFE0FDE650D7E9
:10040000C0E8D6E7E5E1FDE64BD70E94C41A0E949A
:10041000B0190E94B3191FD7CCD50E944C1A4CC1F9
:1004200008953F2C089599C07EC17DC1A2C07BC1B3
:100430007AC179C178C177C176C175C174C173C100
:1004400072C171C170C1ECC001C0089583E3CFD601
:10045000E6018B8180FD2C9880FF2C9AC0E2DDE6BE
:1004600088E1E1D681E18093206DEAD460C1861BEA
:100470000AF48195961B0AF49195890F8795C82FE8
:100480001CC70C9408000C9409000C940A000C94EE
:100490000B000C940C000C940D000C940E000C94AA
:1004A0000F000C9410000C9411000C9412000C948A
:1004B00013000C9414000C9415000C9416000C946A
:1004C00017000C9418000C9419000C941A000C944A
:1004D0001B000C941C000C941D000C941E000C942A
:1004E0001F000C9420000C9421000C9422000C940A
:1004F00023000C9424000C9425000C9426000C94EA
:1005000027000C9428000C9429000C942A000C94C9
:100510002B000C942C000C942D000C942E000C94A9
:100520002F000C9430000C9431000C9432000C9489
:1005300033000C9434000C9435000C9436000C9469
:1005400037000C9438000C9439000C943A000C9449
:100550003B000C943C000C943D0089E648D60C947A
:1005600097138DE244D6E8E0F8E0CDD678D50C9428
:100570009713CAD4E6012A96D0D496D445D582E5FD
:1005800036D6C9CFBCD490D483E731D68BE08093E4
:10059000286DC9E2DDE68EE00E9413196091206AA1
:1005A0007091216A0E94A61A6093296D70932A6D3A
:1005B00060914C6A70914D6A60932B6D70932C6DB5
:1005C00060914E6A60932D6D80911F6D8093266DB2
:1005D0008091276A8093276D8091296A8093286D86
:1005E000B0911B6DB093296DB0911C6DB0932A6DC5
:1005F000B0911D6DB0932B6DB0911E6DB0932C6DAD
:1006000080913B6A90913C6A892B90913A6A892B40
:1006100080932D6DC0E2DAE68AE105D611D487C059
:1006200083E7E5D5C0E2DDE688E10E94131980E1A9
:100630008093206D6091206A7091216A0E94A61AB1
:100640006093216D7093226D60914C6A70914D6A38
:100650006093236D7093246D60914E6A6093256D55
:1006600080911F6D8093266D8091276A8093276DFE
:100670008091296A8093286DB0911B6DB093296D8C
:10068000B0911C6DB0932A6DB0911D6DB0932B6D20
:10069000B0911E6DB0932C6D80913B6A90913C6A35
:1006A000892B90913A6A892B80932D6DC0E2DAE60E
:1006B0008AE1B9D5C5D33BC0789439C02092007087
:1006C000209219702092327020924B7020926470A8
:1006D00020927D70209200712092197120923271C7
:1006E00020924B712092647120927D7108952A9816
:1006F000E0E5F0E03199FCCF3197E1F7319BFECF97
:100700000895E29A88D4B4D485E682D610C0E29ADD
:1007100082D4B1D48EE77CD60AC0E29A7CD4AED41F
:1007200083E276D604C077D49DD48EE200C0609177
:10073000236A80912B6A90912D6AEDEFFCE697DE9B
:10074000B0931B6D80912F6A9091316AE3E0FDE6D2
:100750008EDEB0931C6D8091336A9091356AE9E02A
:10076000FDE685DEB0931D6D8091376A9091396A00
:10077000EFE0FDE67CDEB0931E6DC091256AE5E1F9
:10078000FDE69BD5B0931F6DE4D528D6EFE1FAE6E0
:10079000EDBFFEBFDAD51ED05FD47AD488D43BD467
:1007A000C0EAD6E7E0913A6A80913B6A90913C6A50
:1007B000E99389939993ECE5FAE62192808121925D
:1007C0009081219289939993C0EAD6E787E134D545
:1007D000E88379C4E599FECFE19970DFE79B21DEDC
:1007E000E29928D4ECB3E973ECBB01D085C07FDF7C
:1007F00028D0CC24E60187E169D0F093686A87E1CC
:1008000065D0F093686A87E161D0F093686A87E108
:100810005DD0F093686A87E159D0F093686A8FE7FA
:1008200055D0FD2DE1E0E081E7FD03D0E69B04D04B
:100830000895E69AE79A0895E1E0DE26E1E0FE26D3
:100840000895A895209266082092000BECE0F0E055
:10085000E0930A0BF0930B0BE0E0FFE3E0930C0B4B
:10086000F0930D0BE2ECE0936608209AE2E4E0934B
:100870002608409A2092300287E0A5E1B8E6CCE055
:10088000D8E61D903199FECFE3E0E093000B109283
:100890002208E0E0FFE81D90109222080090640812
:1008A00007FEFCCF009061081090600802FC29CF81
:1008B0001992E125E0818A9589F36AF7E093686AE5
:1008C00020922608E2E0E093300208952196E0E0CD
:1008D000FFE80090640807FEFCCF009061081090CC
:1008E000600802FC0ECF1992E125E0818A958AF713
:1008F000F091686AFE2B0895E5E9F4E15F0120922A
:100900003002E2E8E0932608E9E1E0935A6AF092C7
:100910005B6AE093586AE2E3E093596AE1E0E093AE
:10092000050BE59AD092486A0895209AE9E1E09390
:100930005A6AF0925B6AE093586AE2E3E093596A7C
:10094000E0E8E09325082A98EAEAF4E15F01E0E0B4
:10095000F6E065C2FF2DE9E13191EE2EE69903C084
:1009600030FD2A9A30FF2A983191309362083191F4
:1009700030936208EE2E22E3E0E2E0936508E5ECB6
:10098000F4E15F01E0E0F6E04AC2E2E3E0935A6A94
:10099000F0925B6AE093586AEBE4E093596A2A9814
:1009A000E6EDF4E15F01E0E0F6E039C2FF2DE2E3BD
:1009B0003191EE2EE69903C030FD2A9A30FF2A9835
:1009C000319130936208319130936208EE2E2BE41E
:1009D000E0E2E0936508E1EFF4E15F01E0E0F6E0DA
:1009E0001EC2EBE4E0935A6AF0925B6AE093586AA5
:1009F000E4E6E093596A2A98E2E0F5E15F01E0E07D
:100A0000F6E00DC2FF2DEBE43191EE2EE69903C026
:100A100030FD2A9A30FF2A98319130936208319143
:100A200030936208EE2E24E6E0E2E0936508EDE103
:100A3000F5E15F01E0E0F6E0F2C1E4E6E0935A6A36
:100A4000F0925B6AE093586AEDE7E093596A2A985E
:100A5000EEE2F5E15F01E0E0F6E0E1C1FF2DE4E662
:100A60003191EE2EE69903C030FD2A9A30FF2A9884
:100A7000319130936208319130936208EE2E2DE768
:100A8000E0E2E0936508E9E4F5E15F01E0E0F6E02B
:100A9000C6C1EDE7E0935A6AF0925B6AE093586A48
:100AA000EEEFE093596A2A98EAE5F5E15F01E0E0AC
:100AB000F6E0B5C1FF2DEDE73191EE2EE69903C0CA
:100AC00030FD2A9A30FF2A98319130936208319193
:100AD00030936208EE2E2EEFE0E2E0936508E5E742
:100AE000F5E15F01E0E6FEE19AC12A98EAE6E093CB
:100AF0005B6AECE5E0935A6AE093586AE0E6E093BB
:100B0000596A8F2CF6E7E0EA7F012A98ECE8F5E1D4
:100B10005F01E4E9FBE083C12A98E69911C0E09106
:100B20000268E03069F42A9AF70131913093620843
:100B3000319130936208EE2E28EBE0E2E0936508F5
:100B4000E6EAF5E15F01E0E0F6E069C12A98E6999E
:100B500011C0E0910268E13069F42A9AF7013191FD
:100B600030936208319130936208EE2E28EBE0E278
:100B7000E0936508E0ECF5E15F01E0E0F6E04FC1ED
:100B80002A98E69911C0E0910268E23069F42A9A45
:100B9000F701319130936208319130936208EE2E63
:100BA00028EBE0E2E0936508EAEDF5E15F01E0E0C3
:100BB000F6E035C12A98E69911C0E0910268E33069
:100BC00069F42A9AF7013191309362083191309398
:100BD0006208EE2E28EBE0E2E0936508E4EFF5E131
:100BE0005F01E0E0F6E01BC12A98E69911C0E091B0
:100BF0000268E43069F42A9AF7013191309362086F
:100C0000319130936208EE2E28EBE0E2E093650824
:100C1000EEE0F6E15F01E0E0F6E001C12A98E69936
:100C200011C0E0910268E53069F42A9AF701319128
:100C300030936208319130936208EE2E28EBE0E2A7
:100C4000E0936508E8E2F6E15F01E0E0F6E0E7C086
:100C50002A98E69911C0E0910268E63069F42A9A70
:100C6000F701319130936208319130936208EE2E92
:100C700028EBE0E2E0936508E2E4F6E15F01E0E002
:100C8000F6E0CDC02A98E69911C0E0910268E730FD
:100C900069F42A9AF70131913093620831913093C7
:100CA0006208EE2E28EBE0E2E0936508ECE5F6E161
:100CB0005F01E0E0F6E0B3C02A98E69911C0E09148
:100CC0000268E83069F42A9AF7013191309362089A
:100CD000319130936208EE2E28EBE0E2E093650854
:100CE000E6E7F6E15F01E0E0F6E099C02A98E699D0
:100CF00011C0E0910268E93069F42A9AF701319154
:100D000030936208319130936208EE2E28EBE0E2D6
:100D1000E0936508E0E9F6E15F01E0E0F6E07FC01E
:100D20002A98E69911C0E0910268EA3069F42A9A9B
:100D3000F701319130936208319130936208EE2EC1
:100D400028EBE0E2E0936508EAEAF6E15F01E0E023
:100D5000F6E065C02A98E69911C0E0910268EB3090
:100D600069F42A9AF70131913093620831913093F6
:100D70006208EE2E28EBE0E2E0936508E4ECF6E191
:100D80005F01E0E0F6E04BC02A98E69911C0E091DF
:100D90000268EC3069F42A9AF701319130936208C5
:100DA000319130936208EE2E28EBE0E2E093650883
:100DB000EEEDF6E15F01E0E0F6E031C02A98E69959
:100DC00011C0E0910268ED3069F42A9AF70131917F
:100DD00030936208319130936208EE2E28EBE0E206
:100DE000E0936508E8EFF6E15F01E0E0F6E017C0A8
:100DF0002A982A98E0E0F7E15F01E0E0F6E00FC012
:100E000020922608E2E0E0933002F82CE5982A9838
:100E1000209265082092050BE0E0F0E000C0E0932E
:100E20000C0BF0930D0BE1E0E093060BEF91EFBF9D
:100E3000F30118950C9413190C940E190C941C19A9
:100E40009FD0E0E2FDE687E1F7DF87C099D0E0E2DE
:100E5000FDE68DE0F1DFECE0F8E683E0EDDF83E036
:100E6000E9DF6FC08DD0D32DCEE780E8E0E0F9E672
:100E7000E3DF02C085D000C088D082D0F6018FE0C9
:100E8000DBDFD32DCEE7AFE7B0E007DBF32DEC2DB2
:100E90003F96A193B193C193D19353C0E60188E1EA
:100EA000CDDF09F4089533CCE601A2E1B0E0F5DA34
:100EB000F601739671C0DD2DCEE7AFE7B0E0EDDA55
:100EC000F6013F9669C0E091556AE211E150E09366
:100ED000556AE21128CCE601E985F091506AEF23CA
:100EE000FA95F093506AE2111ECC85C0E601E985BF
:100EF000F091FC6CF211EF1316CC08950895E09177
:100F0000566AE0FF10CC0895E091566AE0FD04C0F7
:100F10008091516A821107CC0895B3DAA991B991F1
:100F20000D010128AE17BF07021051F4ACDAA991E8
:100F3000B9910D010128AE17BF07021009F40895F9
:100F4000F2CBD32DCC2DA2E1B0E0A7DAF32DEC2D1E
:100F50007396A193B193C193D193D32DCC2D87E1F7
:100F60006DDFE9930895DF93CF93C82F0E943B195B
:100F7000EF91FF91A193B193C193D193EF010895A4
:100F8000CC2DCA9504C0C4E602C0CDE700C0D32D65
:100F9000888181608993089501900A12B8CB0190ED
:100FA0000B12B5CB01900C12B2CB01900D12AFCB4E
:100FB0000895E3E0E0933D6AE0E0F2E76F01E0E0EE
:100FC000F0E77F013F2E2092566A2092526AE4E0B9
:100FD000ECBB07D11DD00FC0E7990895FD2DE2E0CD
:100FE000808180FD01D00895E091556AE211EA9573
:100FF000E093556A0895E0914801FFE0F491F09381
:10100000506A2092556A0895EFE0E093556A08957A
:101010002092516A0895F32DE0E02082F32DE9E15A
:101020002082E2E32082EBE42082E4E62082EDE706
:1010300020820895F0E7FF2E3F2E40CBE4E1F9E651
:101040002192E033E9F70895209248012092490166
:10105000E1E0E09343010895E0E8F9E6D3C0E4E875
:10106000F9E6D0C0E8E8F9E6CDC0E0E9F9E6CAC0A3
:10107000ECE8F9E6C7C0E4E9F9E6C4C0E8E9F9E656
:10108000C1C0E091686A2092686AE21140CB08957D
:10109000E7990895DD2DC5E0E881F091576AF39551
:1010A000E093576AEF1709F40895E29A36CBDD2DE5
:1010B000C0E0ED85E0933D6AE79953CAEB85E77F91
:1010C000F9E00C94831902D0E9DE34C0E0910068A5
:1010D000F0910168C3E301D015C0DD2DCC2E8881CD
:1010E00099819F3F49F4803051F08F3F51F000903B
:1010F000526A801521F005C08E179F0711F40F90DA
:101100000F900895CAE1DD2DCC2E80E090E0E0E064
:10111000F9E609901190802901249029E830C9F757
:10112000803011F09211FFCAE0E009F0E1E0E093B5
:10113000566A0895E601EA8102C0E601E885E231D7
:1011400020F4F0E0ED5EFD4E0994EDCA2092FC6CB7
:101150002092F86CECB3E260ECBB089501D037C08C
:10116000E0E0F9E60E945512EF010E944112E99376
:10117000F9930E944312E993F9930E942519E99388
:10118000F9930E942819E993F9930E944512E99373
:10119000F9930E944712E993F99382E0E4DE81E03B
:1011A000E2DE83E0E0DE84E0DEDE87E0DCDE85E0B8
:1011B000DADE86E0D8DEE0E1F1E180E13DDEE8E183
:1011C000F0E0E993F993E0910A68E993089509D072
:1011D00081E08993E8E0F9E68CE02EDE29922992FD
:1011E0000895C0E2DDE6E0E0F9E688E025CE0C9463
:1011F000081AECE3F894AFE1BAE6ADBFBEBFA2D0E7
:10120000A895FECF8081918101968083918328F4F7
:10121000828193810196828393830895019009923C
:101220008A95E1F7089529928A95E9F708959FEF45
:1012300099938A95E9F70895E0E0FFE80990E025A1
:10124000E0818A95D9F7EE230895E0E0F0E0089573
:10125000E0E0F0E00895E8EDFCE60E947912C8EBCA
:10126000DAE60E947B12E8EBFCE60E947912C8EBFA
:10127000DAE60C947B12E8EDFCE60E947D120C94F9
:101280006D12799FE001689FD001699FB00DC11D6B
:10129000D21D789FB00DC11DD21D089580E404C0F9
:1012A00080E202C080E100C0C083D18382832382B8
:1012B00024822582B8CF0DD007C00BD003C009D03F
:1012C000AA0FBB1FAA0FBB1FAA0FBB1FAA0FBB1FD2
:1012D0000895B381A081AB0FB181B21DDC91CC9395
:1012E000A481B581AD1BB209AC0FB21DA483B58337
:1012F000C281D381D395DC1708F0DD27D38308950D
:10130000E2E0F2E000C0EF23F09500903E6A0F2289
:10131000E02904C0E0E002C0EFEF00C0E0933E6AC5
:1013200000C0E0913E6A0C944B12EF23F0950090C0
:101330003D6A0F22E02906C0E0E004C0E5E502C0F6
:10134000EFEF00C0E0933D6A00C0E0913D6A0C946D
:101350004912939904C0E5E5B19B0C94771207C03C
:10136000442455240895AA980895AA9A0895E091CE
:101370004408E7FF0895E0914008E0930074089561
:101380008F93892F0AD08F9108C08F93892F05D012
:101390008F9100C002D08CE23BC001D003C08F937C
:1013A000829501C08F938F70805D8A3308F0895FCA
:1013B0002FD08F9108958AE02BD08DE029C00F01A6
:1013C000451451F0F0914408F5FF06C0F5E7E52D0E
:1013D000F081F09342085394F0010895451459F0B8
:1013E000F0914408F5FFFACFF5E7E52DF081F09391
:1013F00042085394F3CF0895C42DD5E701900020FF
:1014000029F00882C395C511F9CFCA954C2ED8CFC3
:101410000F01F201FA95EF1719F0F5E78083439475
:10142000CFCF8F938E2FF201FA95EF1719F0F5E7D2
:10143000808343948F9108958991ACDF9A95E1F769
:1014400008958991821188130895E2DFFACFC2E6E8
:10145000D4EBF7DF80910A68A0DFC2E7D4EBF1DFBD
:10146000BDCF0A0D1B5B34346D2E2E2E5B424C44D7
:101470002D005D1B5B6D0A0D0000C2E8D4EBE1DFBF
:10148000ADCF0A0D1B5B34336D2E2E2E5B555044B1
:101490005D1B5B6D0A0D0000CAEAD4EBD2DFC0E031
:1014A000D8E690E1C9DF87DF99CF0A0D1B5B3432A4
:1014B0006D2E2E2E5B4150505D1B5B6D202D20004C
:1014C000E0916B6AF0916C6AEF2B0895CF93C09115
:1014D0006B6AC21106C0C0916C6AC21102C0CF9182
:1014E00003C0CF9188940895CF93C2E0C0930A06B9
:1014F000C1E0C0930D06C191C0930006C191C09395
:101500000206C191C0930306C191C0930406C19124
:10151000C0930C06C191C0930806C191C093010607
:10152000C191C093A000C191C0936B6AC191C09357
:101530006C6AC191C0930B06C191C0930A06E093F7
:101540006D6AF0936E6ACF910894089576956795C9
:10155000769567957695679576956795809106114E
:1015600090910711861B970B6091041170910511E2
:1015700088DEC695B795C695B795C695B795C695B5
:10158000B7957C2F6B2F0895E0E0E093736A20926B
:101590009D6A0895FFFFFFFFFFFFFFFFFFFFFFFFB3
:1016000026C03EC07AC192C1B0C1C8C1E7C1FAC10B
:101610000AC212C21AC222C234C23CC03FC069C050
:10162000B5C0C7C0E1C0E9C0F1C0F9C001C109C17E
:1016300011C119C121C129C131C13DC13EC13FC143
:1016400040C148C1E091446AE395E093446AEC9953
:101650000C941012E2E0E093110BF89420921A0B14
:1016600020921B0B789420926F6A2092706A9924C2
:1016700003C0E3E09E2E00C0E998ED98E1E005C2CA
:10168000ED99E5CF1EF49394E1E0FFC1E92DE4313B
:1016900008F4EDCF9092796AEEE0F7C1ED99D7CFDB
:1016A00036F3EAE8F0EC20DFEE27749BE395E09355
:1016B0008A6AE998EA98EB9820927A6A2092786A86
:1016C000EBE7FAE6CFE02192CA95E9F7E091456AA7
:1016D000E395E43650F0E091446AF091466AE09375
:1016E000466AEF1BE093476AE0E0E093456AE2E177
:1016F000CCC1ED99A7CFE0917A6AEF3008F0A2CF84
:10170000FBE7EF0FFAE6F21D9192EB57E0937A6A4E
:10171000E091786AE925E093786A46F509F092CF7E
:10172000E3E0E093110BE091406AF091416A319659
:10173000E093406AF093416AE091426AF091436A13
:10174000E21DF21DE093426AF093436AE091716AF0
:10175000F091726AF695E795F695E795F695E79517
:10176000F211EFEFE093A16AE1E18FC1E091716ABC
:10177000F091726AF695E795F695E795F695E795F7
:10178000F211EFEFE0939F6AE0E17FC1ED9B0EF471
:1017900059CFE091716AF091726AF695E795F695E6
:1017A000E795F695E795F211EFEFE093A06AE2E195
:1017B0006CC1ED9B0EF046CFE2E0E093110B20925E
:1017C0006F6A2092706AE091716AF091726AF69580
:1017D000E795F695E795F695E795F211EFEFE0932B
:1017E000A26A62D1E2E051C1E0917A6AE03019F474
:1017F000E2ECFFEB79DEE3E176C0E0917A6AE0307B
:1018000019F4E6EDFFEB70DEE4E170C0E0917A6A76
:10181000E03019F4EAEEFFEB67DEE5E164C0E09149
:101820007A6AE03019F4EEEFFFEB5EDEE6E15EC0CF
:10183000E0917A6AE03019F4E2E1F0EC55DEE7E19C
:1018400052C0E0917A6AE03019F4E6E2F0EC4CDE46
:10185000E8E14CC0E0917A6AE03019F4EAE3F0EC98
:1018600043DEE9E140C0E0917A6AE03019F4EEE449
:10187000F0EC3ADEEAE13AC0E0917A6AE03019F43D
:101880002D9800002D9AEBE12EC0E0917A6AE030AD
:1018900019F4EEE9F0EC28DEECE128C0E0917A6A78
:1018A000E03039F4E0910A00E295E095EF70E093C2
:1018B0003A6AEDE118C0EEE119C0EFE114C0E0E2D0
:1018C00015C0E0917A6AE03019F4E6E7F0EC0CDE3E
:1018D000E1E209C0E0917A6AE03019F4E2E6F0EC66
:1018E00003DEEFE003C0990C90F8CFC01EF090FC2F
:1018F000A9CECBC090FEA6CEC8C00EF0A8CEC09197
:101900009D6AD0914F6AEB99D860D3FFC070D09197
:101910004F6AEB99D260EA99D0FFCC7FD1FFC370B8
:10192000C0939D6A749B7599A4CE00C0E99AD0912A
:101930004F6AC0910A0BCD23D0914F6ACD0FCF7063
:10194000C0939E6AC15BDCE0F001CD9FF8940092E9
:101950001C0B10921D0B78940F01E2EBF0ECC4DD30
:10196000E0E0E093110BE4E090C02D9800002D9A88
:10197000F0919D6AE0918D6AF0FDE0938208E0911C
:101980008E6AF1FDE0938208E8E6F1E0F894E093D6
:101990001C0BF0931D0B7894E5E077C0D0914F6A53
:1019A000C0910A0BCD23D0914F6ACD0FCF70CE5A84
:1019B000D0919E6ACD1BDCE0F001CD9FF89400929F
:1019C0001C0B10921D0B78940F01E0910A00E29518
:1019D000E095EF70E0933B6AE6E057C02D98000079
:1019E0002D9AF0919D6AE0918F6AF2FDE093820852
:1019F000E0EFF0E0F894E0931C0BF0931D0B78946B
:101A0000E7E043C0F0919D6AE091906AF3FDE093B6
:101A10008208E0EEF1E0F894E0931C0BF0931D0BCC
:101A20007894E8E032C0F0919D6AE091916AF4FD0B
:101A3000E0938208E9E029C0F0919D6AE091926A02
:101A4000F5FDE0938208EAE020C0F0919D6AE09104
:101A5000936AF6FDE0938208EBE017C0F0919D6A6F
:101A6000E091946AF7FDE0938208E0910A00E29524
:101A7000E095EF70E0933C6AE2E0E093110BECE05C
:101A800004C020929D6AE0E000C0E093736AAF91C9
:101A9000BF91CF91DF91E1E0E093150BEF91EFBFA4
:101AA000EF91FF9108950895CBE7DAE6A0917A6A65
:101AB0002092B56AE881E15AF0E0F24E0994FFC045
:101AC00010C10FC10EC10DC10CC10BC10AC109C1AA
:101AD00008C107C106C105C104C103C102C101C1DA
:101AE00000C1FFC0FEC0FDC0FCC0FBC0FAC0F9C011
:101AF000F8C0F7C0F6C0F5C0F4C0F3C0F2C0F1C042
:101B0000F0C0EFC0EEC0EDC0ECC0EBC0EAC0E9C071
:101B1000E8C0E7C0E6C0E5C0E4C0E3C0E2C0E1C0A1
:101B2000E0C0DFC0DEC0DDC0DCC0DBC0DAC0D9C0D1
:101B3000D8C0D7C0D6C0D5C0D4C0D3C0D2C0D1C001
:101B4000D0C0CFC0CEC0CDC0CCC0CBC0CAC0C9C031
:101B5000C8C0C7C0C6C0C5C0C4C0C3C0C2C0C1C061
:101B6000C0C0BFC0BEC0BDC0BCC0BBC0BAC0B9C091
:101B7000B8C0B7C0B6C0B5C0B4C0B3C0B2C0B1C0C1
:101B8000B0C0AFC0AEC0ADC0ACC0ABC0AAC0A9C0F1
:101B9000A8C0A7C0A6C0A5C0A4C0A3C0A2C0A0C022
:101BA0009FC09EC09DC09CC09BC09AC099C098C059
:101BB00097C096C095C094C093C092C091C09FC07A
:101BC0009EC09DC09CC09BC09AC099C098C097C041
:101BD00096C095C094C093C092C091C090C08FC071
:101BE0008EC08DC08CC08BC08AC089C088C087C0A1
:101BF00086C085C084C083C082C081C080C07FC0D1
:101C00007EC07DC07CC07BC07AC079C078C077C000
:101C100076C075C074C073C072C071C070C06FC030
:101C20006EC06DC06CC06BC06AC069C068C067C060
:101C300066C065C064C063C062C061C060C060C08F
:101C40005FC05EC05DC05CC05BC05AC059C058C0B8
:101C500057C056C055C054C053C052C051C050C0E8
:101C60004FC04EC04DC04CC04BC04AC049C048C018
:101C700047C046C045C044C043C042C041C040C048
:101C80003FC03EC03DC03CC03BC03AC039C01AC096
:101C900019C018C017C016C015C014C013C012C098
:101CA00011C010C00FC00EC00DC00CC00BC00AC0C8
:101CB00009C008C007C006C00DC009C00EC0A150B1
:101CC000219636C0A093B66AC093B36A68C1A1508A
:101CD0002196C6C0A1502196C4C0A1502196BBC078
:101CE00000C0EA9AE881F0914F6AB0914F6AB5FF5F
:101CF000EF13CCC0A15021961BC0EB9AFBCF4FC174
:101D0000EA9AE981E330E88111F4E03C79F0F0915E
:101D10004F6AB0914F6AB5FDEF13B8C0E981F091F9
:101D20004F6AEF13B3C0A250229602C0EB9AFBCFCA
:101D3000A093B66AC093B36AE881E295EF70ED555F
:101D4000F0E0F14E09940FC024C039C038C0ABC0D8
:101D5000AAC0A9C0A8C0D3C0D2C0D9C0D4C055C0E1
:101D600054C0FFC0FCC0E991EF70E754F0E0F14EC1
:101D70000994EDC0F0C017C116C10DC10CC10BC153
:101D80000AC109C108C1A7C0A6C005C104C103C1D9
:101D90009EC0E991EF70E153F0E0F14E0994FBC071
:101DA000FAC091C090C0F7C0F6C0F5C0F4C0F3C04F
:101DB000F2C0F1C0F0C0EFC0EEC0EDC0ECC0E991E0
:101DC000EF71EB51F0E0F14E0994E5C0E4C0E3C0DF
:101DD000E2C0E1C0E0C0DFC0DEC0DDC0DCC0DBC00F
:101DE000DAC0D9C0D8C0D7C0D6C0D5C0D4C0D3C03F
:101DF000D2C0D1C0D0C0CFC0CEC0CDC0CCC0CBC06F
:101E0000CAC059C05CC0C7C052C0E991EF71E55F5C
:101E1000F0E0F04E09946FC062C065C0BCC0BBC0AA
:101E2000BAC0B9C0B8C0B7C0B6C0B5C0B4C0B3C0FE
:101E3000B2C0B1C0B0C0AFC0AEC0ADC0ACC0ABC02E
:101E4000AAC0A9C0A8C06FC072C075C078C07BC04E
:101E50004EC061C064C0A093B66AC093B36A18C094
:101E60009AC099C08F93E4EAFAE6A091B66A8A2FE5
:101E70008C0FB081A193BA17A081B991BA07B19321
:101E80008C13FACFC091B36A8F910895E3E291C0A9
:101E9000EB99FCCFE881E03011F0ECE18AC0EB99DE
:101EA000F5CFEDE186C0EB99F1CFE1E082C0EB998F
:101EB000EDCFE2E07EC0EB99E9CFE3E07AC0EB99A9
:101EC000E5CFE4E076C0EB99E1CFEFE172C0EB99AA
:101ED000DDCFE0E26EC0EB99D9CFE1E26AC0EB99C9
:101EE000D5CFE5E066C0EB99D1CFE6E062C0EB99D3
:101EF000CDCFE7E05EC0EB99C9CFE8E05AC0EB99DF
:101F0000C5CFE9E056C0EB99C1CFEAE052C0EB99EA
:101F1000BDCFEBE04EC0EB99B9CFECE04AC0EB99F6
:101F2000B5CFEDE046C0EB99B1CFEEE042C0EB9902
:101F3000ADCFEFE03EC0EB99A9CFE0E13AC0EB991D
:101F4000A5CFE1E136C0EB99A1CFE2E132C0EB9938
:101F50009DCFE3E12EC0EB9999CFE4E12AC0E5E102
:101F600028C0E091B66AE43011F048F418C0E88166
:101F7000E3FD02C0E6E11DC075DFE7E11AC0E881BC
:101F8000FE2FE370F3FD04C0F2FF05C0E8E111C0CD
:101F900069DFE9E10EC0EB9979CFEBE10AC0EB997B
:101FA00075CFE2E206C0EB9971CFEEE102C0EAE143
:101FB00000C0E093B56AE091796AE093B46A08954D
:101FC000089515020000010002812A6A0001000044
:101FD00000810000000215020000010002812C6A4D
:101FE0000001000000810000000215020000010154
:101FF00002812E6A0001000000810000000215022B
:10200000000001010281306A00010000008100002F
:1020100000021502000001020281326A0001000084
:102020000081000000021502000001020281346AF2
:102030000001000000810000000215020000010301
:102040000281366A000100000081000000021502D2
:10205000000001030281386A0001000000810000D5
:1020600000021502000001090280266A000100003A
:1020700000810000000215020000010A0280286AA7
:1020800000010000008100000002150200000107AD
:102090000281226A00010000008100000002150296
:1020A000000001130281246A000100000081000089
:1020B00000021106000001420081696A000101422C
:1020C0000081206A00010000008100000002FFFF83
:00000001FF
; 
; *** EOF 
