:020000020000FC
:100000000C9446000C9419020C9419020C94AF0144
:10001000D3C1D5C1D7C1D9C1F8C0E5C0C4C5C5C514
:10002000D9C1D6C1DEC18CC391C316C419C4A2C341
:10003000ACC3B3C346C41FC42DC496C38BC38FC304
:10004000BFC4EDC1E1C1E6C12FC334C33FC340C348
:1000500048C354C36BC36FC37AC4DFC0E5C071C467
:10006000A4C3AEC38AC3CAC4D3C4E8C4E9C6ECC639
:10007000EEC6F0C6F5C603C713C79BC1010030C169
:10008000000000008CAC1E663EF4EA2AF89422249C
:100090002C98249A2B98239AE7E2F9E6EDBFFEBF4D
:1000A000E8EDF7E0E4BFF0930001A895E8EDF4E295
:1000B000E4BFF0936800E0914000E0934000EFBBA4
:1000C000E8EDE4BF209201102BBE2A98229AE8EDB9
:1000D000F0E6E4BFF0931001E0914101E211FCCFA2
:1000E0002092480120924901E1E0E0934001E3E0E1
:1000F000E093E205E0E0E093E305ECE0E093E40563
:10010000069A079A049AE4E0E0934109E1E3E09358
:100110004009E8E0E093B204E0939304E093B10473
:10012000E093B004E0E4F8E02682A0ECB0E0A08721
:10013000B187A0E8A583A3E0A783A2ECA683839858
:10014000A198AA9AA89AA29AA09AAD98439AA49A1A
:1001500048D05AD0F89902C0F99B06C0E0E0F0E61A
:10016000AFEFA193F836E8F3E0E0F8E62192F0383B
:10017000E8F3E0914801F0914901F230D0F3E2E078
:1001800032D03ED0939B0BC000900090009429F099
:10019000C2E006D5B2D409F45FC1E1E040C1E0E0BD
:1001A000FAE02082218222822382AFE0A083E0E075
:1001B000FBE020822182AEE6B1E0A487B587A1E012
:1001C000A583A5E0A083B9D2BED2789408D018D078
:1001D000C2E6DDD48FB39927E0E0E6D142C0E0E08B
:1001E00002C0EFEF00C0E0FF4B9AE0FD4B98E1FF4B
:1001F000AC9AE1FDAC98E3FFA59AE3FDA5980895BC
:10020000E0E003C0E5E501C0EFEFE093440904D06E
:1002100003D002D00F980F9A0895E8EDF1E0E09333
:100220003400F0934100FFCFA895E8EDE4BFE1E092
:10023000E0930001FFCFCDD316D39681C1D30C92AA
:10024000BED3CCC3C6D3BBD39781BAD30CD309904A
:100250001C9001100C9211960197C9F7B0D3BED330
:100260000895E7E2F9E6EDBFFEBF222734E0EAE2B7
:100270009BD1C091006994D43CD1203491F324FDEA
:1002800010C026FFF9CFE2E2F3E0059000160590DA
:10029000159019F4F0010995E4CFEE35B1F720FF80
:1002A000EBCF003449F7622F6370613029F7206289
:1002B0000DD17A3B21F46331A1F62061DDCF24FF1B
:1002C000D0CF7B3B39F4693060F6C62F69D4246007
:1002D00031E0D2CF7C3B21F422FFC3CF98D1CCCFE9
:1002E0007F3B51F6603011F40AD0BBCF613009F486
:1002F0000AD0B7CF68E08BC1C02F49D4B2CF87D323
:10030000E0EE52D1AECF99D3EEEE4ED1AACF00534C
:10031000E1E00A9512F0EE0FFCCFFEB3FE27FEBB24
:10032000089530870131870132870133870134878F
:1003300001358701368701378701532202520902AE
:10034000647A01617C01627C01637C01657C0166E9
:100350007C01737C01757C016C7C01003101EFB67E
:100360004F01E0914408E7FF13C0E72DE619E03C98
:1003700023FF08F0AA9AE0914108E2FD82C0F0E76D
:10038000E72D7090400871927E2EF401EFBE189513
:10039000E091060BE093060B761411F442104A9498
:1003A0003A9422F4332EE8E0E0934704F401EFBEE0
:1003B0001895E0E0F0E00895EDE0F0E00895E0E366
:1003C000F1EC0895E1E0F0E00895E0E3F1EC089548
:1003D00003D0EBC301D0E7C3AFE0B0E0C0E1D1E1AF
:1003E0000895F8DFA193B193C193D193F1DFA19365
:1003F000B193C193D1930895DFEF672C94D0671028
:10040000FBCF2197D9F7089517D048F00895EBE076
:1004100001C0EAE0FADE2092480120924901A89545
:10042000F894AA98F0E208D0E8F7EFDEF0E404D000
:10043000E8F7D5DEE5DEF1CE0090480100904901F5
:10044000F0150895C0910069ABD357D3C9F4CF33E9
:1004500011F0CB33A9F4D0DF209245082092000A96
:100460002092000B2092050B209248012092490116
:1004700093D1FE01E050F048F695E795F894099481
:10048000FBCEF89420924608AA98E8E0ACDEE5E5B9
:10049000BCDEEFEFA89500C000C000C0E211EA95F5
:1004A000B19BF8CFE211F5CFC4CF8E2F9927ADDEE7
:1004B000E8E099DEE6EA78D0F0910900E2E0F3FDA9
:1004C000EAE091DE32E0672C2ED0F6CF04D0702F18
:1004D00002D0602F089507D002950F9304D00F909B
:1004E0000029F00E089505D00F7D075308F4095D2B
:1004F000089519D0421002C025FDB3CE7614C9F379
:10050000F0E7E62D00816394206442102F7B26FDE6
:100510002F7EFBE04F2E21FF23950A3011F00D3086
:1005200009F42C7F00C00F01A89523FD06C0E72D1C
:10053000E619E03218F4AA9801C0AA9AF0010895C9
:10054000019101D003C00F93029501C00F930F706A
:10055000005D0A3308F0095F1BD00F910895092F41
:10056000F0DF082FEECF0AE013D00DE011C0E0E07D
:10057000F1E1E6DFE5DFE4DF0EE20AD029DFCE01BC
:10058000EEDFCD01ECDF26DFCE01E9DFCD01E7CFE5
:10059000D8E1C9DF0090440805FEFBCF219793996D
:1005A000C1F7009342080895E0930169FDE0E091EE
:1005B000016905910DBBE0930169002391F012F0F0
:1005C000E7DFF4CFE9990ED0EA9911D0EB991AD070
:1005D000EC99CDDFEE9913D0ED99B2D2E899C3DF53
:1005E000E5CF0895C591E0930169DAD290C20090F9
:1005F0000069109031690AE210100895C9CF09E02E
:10060000C7DF87C2EC9BABCFEC980EB39ACF6CBB25
:10061000E099BAD2E19907D0E3999AD2E6991CCF32
:10062000E799F5CE089517D1B7D0C0930269D0935A
:1006300003695FDF20FFFDCF0A33D9F74CDF502E6F
:10064000F02E44DFC0910269D0910369C60FD71F15
:1006500042DF003031F00130F1F0023069F0E4E0C7
:1006600024CFFDD008945208A0F02AD1E5E0C8F0CC
:1006700032DF802F0ED1F6CF29DF660F771F660F8E
:10068000771F660F771F660F771F6093026970935D
:10069000036903D0CECF5AD100C01DDFF21411F090
:1006A000E6E003CF0895BBD0C8E5D3E049D04EC003
:1006B000A8950895C487D5870895C93008F0C9E082
:1006C000DCE0CD9FE001CE57D5470895F6DFADC001
:1006D000C083D183C48BD58BCA0FDB1FC283D38366
:1006E0000895A68FA895C28FD38FD5D020F0C28D44
:1006F000D38D2197B9F70895AA27BB27C48FD58F2B
:10070000EC8FFD8FA895A28FB38FC48DD58DFE0180
:10071000B2D048F0C48DD58DFE01BCD020F0A28DA2
:10072000B38D119779F708958FEF79D0868FA895BB
:10073000B2D0E8F70CC1FADFFFCF71D0C3EFD4E03D
:10074000C68BD78B08956BD0CCEFD4E0C08FD18F00
:10075000089565D081D00ED018D025C260D07CD04D
:1007600009D013D022C25BD0F5DF02841384C015F8
:10077000D1050895C489D5890895C489D589008093
:100780001180C019D10908954AD0A281B38104888B
:100790001588A019B109089542D0C081D18108956A
:1007A0003ED0C281D38108953AD000801180C281A9
:1007B000D381C019D10909F021960024021C0895A3
:1007C0007CDFFE0100801180C281D381F2CF0C2E2C
:1007D000CEE8DAE81884101419F02C96CE3ED1F742
:1007E0000895DCE0CD9FE001CE57D5470895CE01B6
:1007F000CEE8DAE8088019808015910530F00A808B
:100800001B808015910531F028F02C96CE3E91F793
:100810000894089588940895A0E0B1E70895E8E267
:10082000F9E60895FCDFA487B5878CE00990019272
:100830008A95E1F73C97C481D5812197C095D095E1
:10084000C28BD38BC081D181C687D787C08BD18B18
:10085000278E02D07EC0E3DFC081D18101C0DFDFFF
:10086000C48BD58B089584819581A685B785C48571
:10087000D5850895D4DF25D038F0C489D58950D0E6
:1008800020F08991C48BD58B089521968FEF089421
:10089000F9CFC5DF868F15D090F053D0C481D581B4
:1008A0002197A489B589CA23DB231196A48BB58B24
:1008B000A485B585CA0FDB1F868D8883889408952B
:1008C000AEDF04881080011405881180010440F017
:1008D00004881280011405881380010419F010F0B7
:1008E00008940895889408959ADFC489D589A685C7
:1008F000B785CA17DB0730F0A089B189CA17DB07B3
:1009000019F010F0089408958894089588DFC6853A
:10091000D78506D0A78DAE7F08F4A160A78F089574
:10092000C034B0E1DB0748F0D63148F0D03628F0CB
:10093000D03828F0D03908F002C00894089588947F
:100940000895D3DF10F403D004D0089568DF2BD0CE
:1009500026C0C489D58902881388C021D121C687C1
:10096000D78784819581C80FD91F2197C08BD18BE0
:10097000CEDF40F0A685B785C485D5850D90099258
:100980000197E1F70895078C00FC07C06CDF099020
:100990001D90011419F40197D1F718940895F3DF0D
:1009A00009F050CC0895078C00FC08955CDF099095
:1009B0001D90102001103FCC0197C9F7089590E0D9
:1009C000809102108370E1F78DE984BF909300104D
:1009D000089506880F9207880F920895008C0F9251
:1009E000018C0F9208952860AA9AFF93F4E69BDD8C
:1009F000FA95E9F7FF910895277F95CDC2E066DE6D
:100A000080E180930110B0DE20920110089507DF8D
:100A1000EF01DFDF2BD069F09BE0D2DFE895CFDF7D
:100A200092E0CEDF00801180E8953296F03AD1F75F
:100A3000C6DFFE01D3CF02D0F7CBF1DEFF93EF93F9
:100A4000C8DFDCDF81F412D071F094919F3F59F040
:100A50009BE0B6DF0082B3DF92E0B2DF0490019248
:100A6000F03AE1F7ACDFEF91FF91B8CFE0E0F0E9C9
:100A700094918191891711F4F03AD1F7E0E0F0E90F
:100A800008950000FFFF010000002D00000000A0FD
:100A9000FFFF0002080266013FC10090FF9F0002B5
:100AA000080262023BC10014FF1501001812650321
:100AB0003EC180109F102000080263043CC1001159
:100AC0001F110100000073050000501058100100B4
:100AD0000000750600000060FF670002000061076B
:100AE0003AC140104F10010000006C0800000011D6
:100AF0000011010000002D09000035DEA0930469FB
:100B0000B0930569C0930669D09307690895F5DF2E
:100B100006C0E0E1E0930110F0DF20920110E0ED6B
:100B200009F4E6ED0ED0909107698091066917DD12
:100B3000909105698091046912DD02C0E0ED01C069
:100B4000ECEDFDE00591002311F022DDFBCF0895CF
:100B50000ADD81DEF3DF63DE8489958900E1080F19
:100B6000090FF02EE2E920DD85DE38F0082FF00EC7
:100B7000E8DC55DE04890F70B9F7E0DFF1940F2D42
:100B8000E0DC9EDE40F7089566DECEDDDFCE05D0E8
:100B90000091316900930069089519DE3DDE42CE6F
:100BA00020DE3ADE3FCEE89404C06894CA0FDB1F13
:100BB00000C0EF93FF936FEF7FEFCB01FF27A89566
:100BC0000EF019900EF41A9008941794062E0F1E2A
:100BD000969587957795679500FE08C0EDEE9E2760
:100BE000E8EB8E27E3E87E27E0E26E27169471F7A4
:100BF000119728F790958095709560950E01DB010F
:100C0000EC018623872389238095FF91EF91089536
:100D0000A1811B5B34316D2E2E2E5B524553455411
:100D10002D885DA11B5B34346D2E2E2E5B524F4D02
:100D20002E5254422E4331335D00A1814944205B51
:100D3000905D814C3A208708523A201B5B33326D1C
:100D40004331335230303031A1533A208705553A80
:100D500020870681413A208707423A20C702433A5A
:100D6000208704453A208703463A20870181524F65
:100D70004D205B987C527C537C645D202D205B6110
:100D80007C627C637C657C667C6C7C737C755D3E80
:100D90002000813A31301B5B39346DA81B5B393040
:100DA0006D3030A0000081811B5B34356D2E2E2EFE
:100DB0005B4572726F722023885DA0202D203C62FB
:100DC0007265616B3E20746F20726573756D65008E
:100DD0001B5B39306D001B5B33326D001B5B6D009C
:100DE000A1811B5B34346D5B532D3E5D0000A181FE
:100DF0001B5B34346D5B3C2D525D0000FFFFFFFF39
:100E0000ACAAA9A5A3A69C9A999593968E8D8BB111
:100E1000B2B4B874726C6A696563665C5A595553AA
:100E2000564E4D4B4771E8E4E2D1C9C5D8D4D2CA79
:100E3000C6CC78171B1D1E2E363A272B2D3539337D
:100E40001ED00ED01CD00CC00BD019D009C017D0AA
:100E500007D015C005D0E991EF73E081ED930895B7
:100E6000E991EF70F881FF0FEE1FFF0FEE1FFEE814
:100E7000E081ED93E991EF73E081ED930895FEE851
:100E8000E881E695E695E081ED93E991E370E295DE
:100E9000F881F07FF295EF2BFEE8E081ED93089565
:100EA000FEE8E881E081ED930895FFFFFFFFFFFF7B
:100F0000005EBCE2613FDD83C29C7E20A3FD1F41E9
:100F10009DC3217FFCA2401E5F01E3BD3E6082DCD9
:100F2000237D9FC1421CFEA0E1BF5D0380DE3C62C9
:100F3000BEE0025CDF81633D7C22C09E1D43A1FFB9
:100F40004618FAA427799BC584DA3866E5BB5907A9
:100F5000DB856739BAE406581947A5FB7826C49A99
:100F6000653BD987045AB8E6A7F91B45C6987A2489
:100F7000F8A6441A99C7257B3A6486D85B05E7B979
:100F80008CD2306EEDB3510F4E10F2AC2F7193CD69
:100F9000114FADF3702ECC92D38D6F31B2EC0E5059
:100FA000AFF1134DCE90722C6D33D18F0C52B0EE49
:100FB000326C8ED0530DEFB1F0AE4C1291CF2D7339
:100FC000CA947628ABF517490856B4EA6937D58B29
:100FD0005709EBB536688AD495CB2977F4AA481619
:100FE000E9B7550B88D6346A2B7597C94A14F6A809
:100FF000742AC896154BA9F7B6E80A54D7896B35F9
:1010000087C0FFCFFFC7FFCFFFC7FFCFFFC7FFCF0F
:10101000FFC7FFCFFFC7FFCFFFC7FFCFFFC7FFCF80
:10102000FFC7FFCFFFC7FFCFFFC7FFCFFFC7FFCF70
:10103000FFC7FFCFFFC7FFCFFFC7FFCFFFC7FFCF60
:10104000FFC7FFCFFFC7FFCFFFC7FFCFFFC7FFCF50
:10105000FFC7FFCFFFC7FFCFFFC7FFCFFFC7FFCF40
:10106000FFC7FFCFFFC7FFCFFFC7FFCFFFC7FFCF30
:10107000FFC7FFCFFFC7FFCFFFC7FFCFFFC7FFCF20
:10108000FFC7FFCFFFC7FFCFFFC7FFCFFFC7FFCF10
:10109000FFC7FFCFFFC7FFCFFFC7FFCFFFC7FFCF00
:1010A000FFC7FFCFFFC7FFCFFFC7FFCFFFC7FFCFF0
:1010B000FFC7FFCFFFC7FFCFFFC7FFCFFFC7FFCFE0
:1010C000FFC7FFCFFFC7FFCFFFC7FFCFFFC7FFCFD0
:1010D000FFC7FFCFFFC7FFCFFFC7FFCFFFC7FFCFC0
:1010E000FFC7FFCFFFC7FFCFFFC7FFCFFFC7FFCFB0
:1010F000FFC7FFCFFFC7FFCFFFC7FFCFFFC7FFCFA0
:1011000001003BC1020100008CAC1E6626AAD6E598
:10111000A895F8942224EFB3E0930A68EFE1FAE689
:10112000EDBFFEBFECE069D4E8EDF3E0E4BFF0937F
:10113000600000C000C0E0916300E1FDFCCFE8ED7D
:10114000F1E0E4BFF093620052D4E0E0FAE6C0E0E0
:10115000DCE021922197E9F720924508E8E020920F
:101160003204E0933104E0933004E0E6F8E02682B4
:10117000A0E6B0E0A087B187A0E0A583A3E0A783A5
:10118000A2ECA6832A982198209A229AE0E0FBE01C
:101190002082218224862586AFEFA683A3E0A08348
:1011A00014D439D43BD4CFD38AD2ACD4AA98A29A3F
:1011B0007CC02BC5C5C522C5CEC5DDC42AC543C567
:1011C0004CC55FC588C5A6C5AFC0AEC0ADC0ACC07C
:1011D000ABC00C9408000C9409000C940A000C9409
:1011E0000B000C940C000C940D000C940E000C944D
:1011F0000F000C9410000C9411000C9412000C942D
:1012000013000C9414000C9415000C9416000C940C
:1012100017000C9418000C9419000C941A000C94EC
:101220001B000C941C000C941D000C941E000C94CC
:101230001F000C9420000C9421000C9422000C94AC
:1012400023000C9424000C9425000C9426000C948C
:1012500027000C9428000C9429000C942A000C946C
:101260002B000C942C000C942D000C942E000C944C
:101270002F000C9430000C9431000C9432000C942C
:1012800033000C9434000C9435000C9436000C940C
:1012900037000C9438000C9439000C943A000C94EC
:1012A0003B000C943C000C943D00E3E0A6D31ED020
:1012B000E0E0A3D33DC020920070209219702092EC
:1012C000327020924B702092647020927D70209238
:1012D0000071209219712092327120924B712092EC
:1012E000647120927D7108953B2C08952A98319B5A
:1012F000FECFE0E5F0E03199FCCF3197E1F7319B8B
:10130000FECF0895E29A0DD239D285E6DCD310C023
:10131000E29A07D236D28EE7D6D30AC0E29A01D239
:1013200033D283E2D0D304C0FCD122D28EE200C0FB
:101330006BD3AFD3EFE1FAE6EDBFFEBF61D306D0CA
:1013400011D22CD23AD2EDD1CDD143C2E199B3DF43
:10135000E79BCADFE299F4D1ECB3E973ECBB01D0AF
:1013600080C0C4DF2DD0CC24E601D093256A87E16C
:1013700062D0F0932A6A87E15ED0F0932A6A87E10F
:101380005AD0F0932A6A87E156D0F0932A6A87E10F
:1013900052D0F0932A6A8FE74ED0FD2DE1E0E08134
:1013A000E7FD06D0E69B07D0E4E0E093A7040895AC
:1013B000E69AE79A0895E1E0DE26E1E0BE2635C030
:1013C000A895209266082092000BECE0F0E0E093F4
:1013D0000A0BF0930B0B20920C0B20920D0BEFEFEE
:1013E000E093060BE2ECE0936608209A87E0CBE2FC
:1013F000DAE63199FECFE3E0E093000BE4E0E0931E
:10140000A704E0E0FFE80090640807FEFCCF00902E
:1014100061081090600802FC75CF1992E125E08107
:101420008A958AF7E0932A6A0895EBE2FAE6CCE01F
:10143000D8E687E070C22196E0E0FFE800906408FB
:1014400007FEFCCF009061081090600802FC5ACFA4
:101450001992E125E0818A958AF7F0912A6AFE2B9C
:101460000895BB2DB093266A60E07FE336D060E03C
:1014700075E4A9E187E13FD060E07BE42ED060E035
:1014800071E5A2E387E137D060E077E526D060E040
:101490007DE5ABE487E12FD060E073E61ED060E02D
:1014A00079E6A4E687E127D060E07FE616D060E029
:1014B00075E7ADE78FE71FD060E673E900900A0B90
:1014C000061600900B0B07060090060B01FEB0F30A
:1014D000E4E0E093A7042A98089500900A0B06160A
:1014E00000900B0B07060090060B01FEB0F3E4E042
:1014F000E093A7040895ED91E699EE7FE0FD2A9A26
:10150000E0FF2A9800900A0B061600900B0B0706C6
:101510000090060B01FEB0F3E4E0E093A704E09135
:101520006408E5FFFCCFED91E09362088A95BAF775
:10153000E0E4E0936408E0916408E6FFFCCF0895DE
:101540000C94900C0C948B0C0C94940C9FD0E8E7AA
:10155000FCE687E1F7DF87C099D0E8E7FCE68DE09D
:10156000F1DFECE0F8E683E0EDDF83E0E9DF6FC078
:101570008DD0D32DCEE780E8E0E0F9E6E3DF02C0CE
:1015800085D000C088D082D0F6018FE0DBDFD32D7C
:10159000CEE7AFE7B0E029DEF32DEC2D3F96A19327
:1015A000B193C193D19353C0E60188E1CDDF09F433
:1015B0000895AECEE601A2E1B0E017DEF601739623
:1015C00071C0DD2DCEE7AFE7B0E00FDEF6013F964C
:1015D00069C0E091276AE211E150E093276AE211C5
:1015E000A3CEE601E985F091226AEF23FA95F09304
:1015F000226AE21199CE85C0E601E985F091776C07
:10160000F211EF1391CE08950895E091286AE0FF5A
:101610008BCE0895E091286AE0FD04C08091236A92
:10162000821182CE0895D5DDA991B9910D010128CD
:10163000AE17BF07021051F4CEDDA991B9910D018B
:101640000128AE17BF07021009F408956DCED32DFF
:10165000CC2DA2E1B0E0C9DDF32DEC2D7396A19362
:10166000B193C193D193D32DCC2D87E16DDFE99355
:101670000895DF93CF93C82F0E94B30CEF91FF9191
:10168000A193B193C193D193EF010895CC2DCA9545
:1016900004C0C4E602C0CDE700C0D32D88818160BC
:1016A0008993089501900A1233CE01900B1230CE27
:1016B00001900C122DCE01900D122ACE0895E3E078
:1016C000E093216AE0E0F2E76F01E0E0F0E75F011C
:1016D0003F2E2092286A2092246AE4E0ECBBC4D01A
:1016E0001DD00FC0E7990895FD2DE2E0808180FDB7
:1016F00001D00895E091276AE211EA95E093276A04
:101700000895E0914801FFE0F491F093226A20925D
:10171000276A0895EFE0E093276A08952092236AEC
:101720000895F32DE0E02082F32DE9E12082E2E349
:101730002082EBE42082E4E62082EDE72082089517
:10174000F0E7BF2E3F2EB7CDE4E1F9E62192E0337A
:10175000E9F708952092480120924901E1E0E093E1
:1017600043010895E0E8F9E6CAC0E4E8F9E6C7C035
:10177000E8E8F9E6C4C0E0E9F9E6C1C0ECE8F9E65A
:10178000BEC0E4E9F9E6BBC0E8E9F9E6B8C0E0911B
:101790002A6A20922A6AE211BBCD0895E79908953A
:1017A000DD2DC5E0E881F091296AF395E093296A7F
:1017B000EF1709F40895E29AB1CDDD2DC0E0EC8574
:1017C000E093216AE799B4C2EB85E77FFBE00C94D4
:1017D000DE0C1ED0E9DE37C0E0910068F0910168B0
:1017E000C3E301D015C0DD2DCC2E888199819F3FA8
:1017F00049F4803051F08F3F51F00090246A8015F9
:1018000021F005C08E179F0711F40F900F900895D7
:10181000CAE1DD2DCC2E80E090E0E0E0F9E6099011
:101820001190802901249029E830C9F7803011F007
:1018300092117ACDE0E009F0E1E0E093286A0895A2
:10184000E601EA8102C0E601E885E03120F4F0E03B
:10185000E752F74F099468CD2092776C2092736C11
:10186000ECB3E260ECBB089501D037C0E0E0F9E6EC
:101870000E94FD08EF010E94E908E993F9930E9494
:10188000EB08E993F9930E949D0CE993F9930E9468
:10189000A00CE993F9930E94ED08E993F9930E9453
:1018A000EF08E993F99382E0E4DE81E0E2DE83E091
:1018B000E0DE84E0DEDE87E0DCDE85E0DADE86E0A6
:1018C000D8DEE0E1F1E180E13DDEE8E1F0E0E9933E
:1018D000F993E0910A68E993089509D081E089932A
:1018E000E8E0F9E68CE02EDE299229920895C8E717
:1018F000DCE6E0E0F9E688E025CE0C94630D80811B
:10190000918101968083918328F48281938101964D
:10191000828393830895019009928A95E1F708954F
:1019200029928A95E9F70895E0E0FFE80990E0251B
:10193000E0818A95D9F7EE230895E0E0F0E008957C
:10194000E0E0F0E00895E3E5FCE60E942109C3E34E
:10195000DAE60E942309E3E3FCE60E942109C3E3DF
:10196000DAE60C942309E3E5FCE60E9425090C94D1
:101970001509C0E0D8E6A4E0B0E00EC0C0E0D8E6AB
:10198000A8E0B0E014C0C0E0D8E680E0C9DF00C045
:10199000EFEFE0930968089528DCF001A095B09579
:1019A000C095D095A083B183C283D38308951DDCF5
:1019B000F00180830895E2E0F2E000C0EF23F095AB
:1019C0000090206A0F22E02904C0E0E002C0EFEF9F
:1019D00000C0E093206A00C0E091206A0C94F308F4
:1019E000EF23F0950090216A0F22E02906C0E0E085
:1019F00004C0E5E502C0EFEF00C0E093216A00C03B
:101A0000E091216A0C94F108939904C0E5E5B19B3B
:101A10000C941F0907C0442455240895AA980895DA
:101A2000AA9A0895E0914408E7FF0895E0914008DC
:101A3000E093007408958F93892F0AD08F9108C086
:101A40008F93892F05D08F9100C002D08CE23BC0CC
:101A500001D003C08F93829501C08F938F70805DFA
:101A60008A3308F0895F2FD08F9108958AE02BD0B8
:101A70008DE029C00F01451451F0F0914408F5FFA5
:101A800006C0F5E7E52DF081F09342085394F0018C
:101A90000895451459F0F0914408F5FFFACFF5E7A1
:101AA000E52DF081F09342085394F3CF0895C42DAF
:101AB000D5E70190002029F00882C395C511F9CF20
:101AC000CA954C2ED8CF0F01F201FA95EF1719F0F5
:101AD000F5E780834394CFCF8F938E2FF201FA9551
:101AE000EF1719F0F5E7808343948F91089589915A
:101AF000ACDF9A95E1F708958991821188130895D2
:101B0000E2DFFACFC8E1DBE9F7DF80910A68A0DF06
:101B1000C8E2DBE9F1DFBDCF0A0D1B5B34346D2E6B
:101B20002E2E5B424C442D005D1B5B6D0A0D0000A8
:101B3000C8E3DBE9E1DFADCF0A0D1B5B34336D2E6B
:101B40002E2E5B5550445D1B5B6D0A0D0000C0E6F8
:101B5000DBE9D2DFC0E0D8E690E1C9DF87DF99CFCB
:101B60000A0D1B5B34326D2E2E2E5B4150505D1BD7
:101B70005B6D202D200049DD1DDDCCDD82E6BDDE64
:101B8000C0911A69D0911B69CF33A1F5D13C91F571
:101B90002A982FDF7EDFE601898580930268888995
:101BA000998980930368909304688E859F858093BC
:101BB000006890930168ECE0F8E6C5E1D8E687E0BC
:101BC000AADE80910268839580931768C5E1D8E604
:101BD00087E0AADEE8830E94B90CE6018A8980FFCB
:101BE0000C940010E8EDE0933400E5E8E093011078
:101BF0000C940010ECB3E260ECBB96CB06DDDADCB3
:101C000089DD81E77ADEB4DC93CB89E676DE0C945D
:101C1000980900DDE6012A9606DDCCDC7BDD83E752
:101C20006CDEE601EE85E093736CE985E093776CFA
:101C300091DDC7E0E3E5FCE608DBC091736CE3E30C
:101C4000FCE603DB75CBE6DCE6012A96ECDCB2DCD5
:101C500061DD85E752DE00DE6BCBD7DCABDC5ADD25
:101C600082E74BDEF601A285B385D32DCEE78585CD
:101C7000813808F059CB0D9009928A95E1F780DC04
:101C800057CBBADCC7DC96DC9CDC44DD63DD87E740
:101C900034DEF60182859385D3DEF6018585D5DEB7
:101CA0002A9852DDA0E8B0E0DD2DCEE7E3E5FCE6C2
:101CB000CEDAF601C285D385E3E3FCE6A6DAE601D7
:101CC000AD85B0E0C3E5DCE6E3E3FCE6C4DAECB303
:101CD000E260ECBB2DCB90DC9DDC6CDC1BDD86E692
:101CE0000CDEF60182859385ABDEB6DD2DDD2A980C
:101CF000E3E3FCE6B6DAF601C285D385E3E3FCE66E
:101D000084DAE6018D85A9DAACDAB0DDECB3E26005
:101D1000ECBB0ECB79DCE6012A9685DC4BDCFADCE9
:101D20008DE6EBDDF60181858093236A0C9498099A
:101D30008DE2E3DDE8E0F8E041DE17DD0C94980980
:101D400069DCE6012A966FDC35DC43DC80E7D5DD13
:101D5000C4DD02DCEDCA5EDCE6012A9664DC2ADC26
:101D6000D9DC82E5CADD7FCAFFFFFFFFFFFFFFFF6F
:1020000027C1000081E084C082E082C083E080C0FC
:1020100084E07EC085E07CC086E07AC087E078C03E
:1020200088E076C089E074C08AE072C08BE070C03E
:1020300075C0000078D07EC08EE06AC08FE068C0B6
:1020400080E166C081E164C082E162C083E160C07A
:1020500084E15EC085E15CC086E15AC087E158C07A
:10206000CAC0000089E154C08AE152C08BE150C06F
:102070008CE14EC08DE14CC08EE14AC0A7C000008B
:1020800080E246C081E244C082E242C083E240C0B6
:1020900084E23EC085E23CC086E23AC087E238C0B6
:1020A00088E236C089E234C08AE232C08BE230C0B6
:1020B0008CE22EC08DE22CC08EE22AC08FE228C0B6
:1020C00080E326C081E324C082E322C083E320C0F2
:1020D00084E31EC06FC0000086E31AC087E318C007
:1020E00088E316C089E314C08AE312C08BE310C0F2
:1020F0008CE30EC08DE30CC08EE30AC08FE308C0F2
:1021000001003FC1020100008CAC1E666577B2FE83
:102110002A9820926608E82F0C94FA183F01EFB72E
:10212000EF93F50109943091160B3093160B209222
:10213000150B1895FF93EF93EFB7EF93DF93CF93C2
:10214000BF93AF93F894E0911C0BF0911D0B789422
:10215000A0916F6AB091706AE0936F6AF093706AB1
:10216000EA1BE093716AFB0BF093726A6894B2E029
:10217000E037FB0708F4ED9AB2E0E43FFB0730F0EC
:10218000E894B4E0E833FB0708F4ED9AF1E4E09159
:102190008A6AE21104C07499F061E3E003C07599A2
:1021A000F061E4E0E0934102F093140BE091736A74
:1021B000FBE109943F01F701319130936208EE2E63
:1021C000F301E21218952092650818953F013091AD
:1021D000586AE0915A6AF0915B6AE31302C031E0F9
:1021E0003193309120083193F091596AEF13E093C5
:1021F0005A6AF30118953F01E0916B6AF0916C6A9D
:10220000309110063193309111063083E0916D6A60
:10221000F0916E6A319130930C063191309308063B
:1022200031913093010631913093A0003191309378
:102230006B6A319130936C6A319130930B06319116
:1022400030930A06E0936D6AF0936E6AF301189575
:10225000A895F8942224E8EDE0933400E5E8E093B3
:102260000110E8EDE4BF20921001EFE1FAE6EDBFC6
:10227000FEBFE0E0FAE6C6ECDCE021922197E9F748
:10228000A0910268A03110F0EBE131C1E8E02092AA
:102290003204E0933104E0933004E0E6F8E0268273
:1022A000A0E6B0E0A087B1872582A3E0A783A2ECD7
:1022B000A6832A982198209A229AE8E0E093510474
:1022C000E0935004E0E2F8E02682A0E6B0E0A087C8
:1022D000B187A0E8A583A3E0A78341984098E8E0F0
:1022E000E0935204E9E4E09311024298ACE4A09335
:1022F0001202ADE4A0931302A3E0A0934102E0E038
:10230000FBE02082218224862586AFEFA683A3E00E
:10231000A083E0E1FBE02082A2E0A183A1E4A4830A
:10232000A1E0A683A583A3E0A083A0914101A0FD25
:10233000FCCFA1E2A0934001E0E8F8E02682A0E80B
:10234000B1E0A087B1872582A3E0A783A0E4A6839C
:10235000889A809AE0EAF0E0A1E8A083A1E8A2834D
:10236000E0E0F6E0A1E1A083A0E0A183A3E0A283E6
:10237000A0E0A383A0E0A483A1E0A0930506A0E0D1
:10238000A087E4E0E0937604E0ECE093A206EFE7B8
:10239000E093A306E1E4E093A00620927404209267
:1023A000750464986598A8E0A0935404A09355041C
:1023B000A0935604A09357042D9A259A44984598C3
:1023C000469847982B9A239A0E948A19A895E8ED77
:1023D000E4BFE7E0E0930001C0E0D6E7EDEFFCE604
:1023E0005FD7C0E2D6E7E3E0FDE65AD7C0E4D6E720
:1023F000E9E0FDE655D7C0E6D6E7EFE0FDE650D7C9
:10240000C0E8D6E7E5E1FDE64BD70E94C41A0E947A
:10241000B0190E94B3191FD7CCD50E944C1A4CC1D9
:1024200008953F2C089599C07EC17DC1A2C07BC193
:102430007AC179C178C177C176C175C174C173C1E0
:1024400072C171C170C1ECC001C0089583E3CFD6E1
:10245000E6018B8180FD2C9880FF2C9AC0E2DDE69E
:1024600088E1E1D681E18093206DEAD460C1861BCA
:102470000AF48195961B0AF49195890F8795C82FC8
:102480001CC70C9408000C9409000C940A000C94CE
:102490000B000C940C000C940D000C940E000C948A
:1024A0000F000C9410000C9411000C9412000C946A
:1024B00013000C9414000C9415000C9416000C944A
:1024C00017000C9418000C9419000C941A000C942A
:1024D0001B000C941C000C941D000C941E000C940A
:1024E0001F000C9420000C9421000C9422000C94EA
:1024F00023000C9424000C9425000C9426000C94CA
:1025000027000C9428000C9429000C942A000C94A9
:102510002B000C942C000C942D000C942E000C9489
:102520002F000C9430000C9431000C9432000C9469
:1025300033000C9434000C9435000C9436000C9449
:1025400037000C9438000C9439000C943A000C9429
:102550003B000C943C000C943D0089E648D60C945A
:1025600097138DE244D6E8E0F8E0CDD678D50C9408
:102570009713CAD4E6012A96D0D496D445D582E5DD
:1025800036D6C9CFBCD490D483E731D68BE08093C4
:10259000286DC9E2DDE68EE00E9413196091206A81
:1025A0007091216A0E94A61A6093296D70932A6D1A
:1025B00060914C6A70914D6A60932B6D70932C6D95
:1025C00060914E6A60932D6D80911F6D8093266D92
:1025D0008091276A8093276D8091296A8093286D66
:1025E000B0911B6DB093296DB0911C6DB0932A6DA5
:1025F000B0911D6DB0932B6DB0911E6DB0932C6D8D
:1026000080913B6A90913C6A892B90913A6A892B20
:1026100080932D6DC0E2DAE68AE105D611D487C039
:1026200083E7E5D5C0E2DDE688E10E94131980E189
:102630008093206D6091206A7091216A0E94A61A91
:102640006093216D7093226D60914C6A70914D6A18
:102650006093236D7093246D60914E6A6093256D35
:1026600080911F6D8093266D8091276A8093276DDE
:102670008091296A8093286DB0911B6DB093296D6C
:10268000B0911C6DB0932A6DB0911D6DB0932B6D00
:10269000B0911E6DB0932C6D80913B6A90913C6A15
:1026A000892B90913A6A892B80932D6DC0E2DAE6EE
:1026B0008AE1B9D5C5D33BC0789439C02092007067
:1026C000209219702092327020924B702092647088
:1026D00020927D70209200712092197120923271A7
:1026E00020924B712092647120927D7108952A98F6
:1026F000E0E5F0E03199FCCF3197E1F7319BFECF77
:102700000895E29A88D4B4D485E682D610C0E29ABD
:1027100082D4B1D48EE77CD60AC0E29A7CD4AED4FF
:1027200083E276D604C077D49DD48EE200C0609157
:10273000236A80912B6A90912D6AEDEFFCE697DE7B
:10274000B0931B6D80912F6A9091316AE3E0FDE6B2
:102750008EDEB0931C6D8091336A9091356AE9E00A
:10276000FDE685DEB0931D6D8091376A9091396AE0
:10277000EFE0FDE67CDEB0931E6DC091256AE5E1D9
:10278000FDE69BD5B0931F6DE4D528D6EFE1FAE6C0
:10279000EDBFFEBFDAD51ED05FD47AD488D43BD447
:1027A000C0EAD6E7E0913A6A80913B6A90913C6A30
:1027B000E99389939993ECE5FAE62192808121923D
:1027C0009081219289939993C0EAD6E787E134D525
:1027D000E88379C4E599FECFE19970DFE79B21DEBC
:1027E000E29928D4ECB3E973ECBB01D085C07FDF5C
:1027F00028D0CC24E60187E169D0F093686A87E1AC
:1028000065D0F093686A87E161D0F093686A87E1E8
:102810005DD0F093686A87E159D0F093686A8FE7DA
:1028200055D0FD2DE1E0E081E7FD03D0E69B04D02B
:102830000895E69AE79A0895E1E0DE26E1E0FE26B3
:102840000895A895209266082092000BECE0F0E035
:10285000E0930A0BF0930B0BE0E0FFE3E0930C0B2B
:10286000F0930D0BE2ECE0936608209AE2E4E0932B
:102870002608409A2092300287E0A5E1B8E6CCE035
:10288000D8E61D903199FECFE3E0E093000B109263
:102890002208E0E0FFE81D901092220800906408F2
:1028A00007FEFCCF009061081090600802FC29CF61
:1028B0001992E125E0818A9589F36AF7E093686AC5
:1028C00020922608E2E0E093300208952196E0E0AD
:1028D000FFE80090640807FEFCCF009061081090AC
:1028E000600802FC0ECF1992E125E0818A958AF7F3
:1028F000F091686AFE2B0895E5E9F4E15F0120920A
:102900003002E2E8E0932608E9E1E0935A6AF092A7
:102910005B6AE093586AE2E3E093596AE1E0E0938E
:10292000050BE59AD092486A0895209AE9E1E09370
:102930005A6AF0925B6AE093586AE2E3E093596A5C
:10294000E0E8E09325082A98EAEAF4E15F01E0E094
:10295000F6E065C2FF2DE9E13191EE2EE69903C064
:1029600030FD2A9A30FF2A983191309362083191D4
:1029700030936208EE2E22E3E0E2E0936508E5EC96
:10298000F4E15F01E0E0F6E04AC2E2E3E0935A6A74
:10299000F0925B6AE093586AEBE4E093596A2A98F4
:1029A000E6EDF4E15F01E0E0F6E039C2FF2DE2E39D
:1029B0003191EE2EE69903C030FD2A9A30FF2A9815
:1029C000319130936208319130936208EE2E2BE4FE
:1029D000E0E2E0936508E1EFF4E15F01E0E0F6E0BA
:1029E0001EC2EBE4E0935A6AF0925B6AE093586A85
:1029F000E4E6E093596A2A98E2E0F5E15F01E0E05D
:102A0000F6E00DC2FF2DEBE43191EE2EE69903C006
:102A100030FD2A9A30FF2A98319130936208319123
:102A200030936208EE2E24E6E0E2E0936508EDE1E3
:102A3000F5E15F01E0E0F6E0F2C1E4E6E0935A6A16
:102A4000F0925B6AE093586AEDE7E093596A2A983E
:102A5000EEE2F5E15F01E0E0F6E0E1C1FF2DE4E642
:102A60003191EE2EE69903C030FD2A9A30FF2A9864
:102A7000319130936208319130936208EE2E2DE748
:102A8000E0E2E0936508E9E4F5E15F01E0E0F6E00B
:102A9000C6C1EDE7E0935A6AF0925B6AE093586A28
:102AA000EEEFE093596A2A98EAE5F5E15F01E0E08C
:102AB000F6E0B5C1FF2DEDE73191EE2EE69903C0AA
:102AC00030FD2A9A30FF2A98319130936208319173
:102AD00030936208EE2E2EEFE0E2E0936508E5E722
:102AE000F5E15F01E0E6FEE19AC12A98EAE6E093AB
:102AF0005B6AECE5E0935A6AE093586AE0E6E0939B
:102B0000596A8F2CF6E7E0EA7F012A98ECE8F5E1B4
:102B10005F01E4E9FBE083C12A98E69911C0E091E6
:102B20000268E03069F42A9AF70131913093620823
:102B3000319130936208EE2E28EBE0E2E0936508D5
:102B4000E6EAF5E15F01E0E0F6E069C12A98E6997E
:102B500011C0E0910268E13069F42A9AF7013191DD
:102B600030936208319130936208EE2E28EBE0E258
:102B7000E0936508E0ECF5E15F01E0E0F6E04FC1CD
:102B80002A98E69911C0E0910268E23069F42A9A25
:102B9000F701319130936208319130936208EE2E43
:102BA00028EBE0E2E0936508EAEDF5E15F01E0E0A3
:102BB000F6E035C12A98E69911C0E0910268E33049
:102BC00069F42A9AF7013191309362083191309378
:102BD0006208EE2E28EBE0E2E0936508E4EFF5E111
:102BE0005F01E0E0F6E01BC12A98E69911C0E09190
:102BF0000268E43069F42A9AF7013191309362084F
:102C0000319130936208EE2E28EBE0E2E093650804
:102C1000EEE0F6E15F01E0E0F6E001C12A98E69916
:102C200011C0E0910268E53069F42A9AF701319108
:102C300030936208319130936208EE2E28EBE0E287
:102C4000E0936508E8E2F6E15F01E0E0F6E0E7C066
:102C50002A98E69911C0E0910268E63069F42A9A50
:102C6000F701319130936208319130936208EE2E72
:102C700028EBE0E2E0936508E2E4F6E15F01E0E0E2
:102C8000F6E0CDC02A98E69911C0E0910268E730DD
:102C900069F42A9AF70131913093620831913093A7
:102CA0006208EE2E28EBE0E2E0936508ECE5F6E141
:102CB0005F01E0E0F6E0B3C02A98E69911C0E09128
:102CC0000268E83069F42A9AF7013191309362087A
:102CD000319130936208EE2E28EBE0E2E093650834
:102CE000E6E7F6E15F01E0E0F6E099C02A98E699B0
:102CF00011C0E0910268E93069F42A9AF701319134
:102D000030936208319130936208EE2E28EBE0E2B6
:102D1000E0936508E0E9F6E15F01E0E0F6E07FC0FE
:102D20002A98E69911C0E0910268EA3069F42A9A7B
:102D3000F701319130936208319130936208EE2EA1
:102D400028EBE0E2E0936508EAEAF6E15F01E0E003
:102D5000F6E065C02A98E69911C0E0910268EB3070
:102D600069F42A9AF70131913093620831913093D6
:102D70006208EE2E28EBE0E2E0936508E4ECF6E171
:102D80005F01E0E0F6E04BC02A98E69911C0E091BF
:102D90000268EC3069F42A9AF701319130936208A5
:102DA000319130936208EE2E28EBE0E2E093650863
:102DB000EEEDF6E15F01E0E0F6E031C02A98E69939
:102DC00011C0E0910268ED3069F42A9AF70131915F
:102DD00030936208319130936208EE2E28EBE0E2E6
:102DE000E0936508E8EFF6E15F01E0E0F6E017C088
:102DF0002A982A98E0E0F7E15F01E0E0F6E00FC0F2
:102E000020922608E2E0E0933002F82CE5982A9818
:102E1000209265082092050BE0E0F0E000C0E0930E
:102E20000C0BF0930D0BE1E0E093060BEF91EFBF7D
:102E3000F30118950C9413190C940E190C941C1989
:102E40009FD0E0E2FDE687E1F7DF87C099D0E0E2BE
:102E5000FDE68DE0F1DFECE0F8E683E0EDDF83E016
:102E6000E9DF6FC08DD0D32DCEE780E8E0E0F9E652
:102E7000E3DF02C085D000C088D082D0F6018FE0A9
:102E8000DBDFD32DCEE7AFE7B0E007DBF32DEC2D92
:102E90003F96A193B193C193D19353C0E60188E1CA
:102EA000CDDF09F4089533CCE601A2E1B0E0F5DA14
:102EB000F601739671C0DD2DCEE7AFE7B0E0EDDA35
:102EC000F6013F9669C0E091556AE211E150E09346
:102ED000556AE21128CCE601E985F091506AEF23AA
:102EE000FA95F093506AE2111ECC85C0E601E9859F
:102EF000F091FC6CF211EF1316CC08950895E09157
:102F0000566AE0FF10CC0895E091566AE0FD04C0D7
:102F10008091516A821107CC0895B3DAA991B991D1
:102F20000D010128AE17BF07021051F4ACDAA991C8
:102F3000B9910D010128AE17BF07021009F40895D9
:102F4000F2CBD32DCC2DA2E1B0E0A7DAF32DEC2DFE
:102F50007396A193B193C193D193D32DCC2D87E1D7
:102F60006DDFE9930895DF93CF93C82F0E943B193B
:102F7000EF91FF91A193B193C193D193EF01089584
:102F8000CC2DCA9504C0C4E602C0CDE700C0D32D45
:102F9000888181608993089501900A12B8CB0190CD
:102FA0000B12B5CB01900C12B2CB01900D12AFCB2E
:102FB0000895E3E0E0933D6AE0E0F2E76F01E0E0CE
:102FC000F0E77F013F2E2092566A2092526AE4E099
:102FD000ECBB07D11DD00FC0E7990895FD2DE2E0AD
:102FE000808180FD01D00895E091556AE211EA9553
:102FF000E093556A0895E0914801FFE0F491F09361
:10300000506A2092556A0895EFE0E093556A08955A
:103010002092516A0895F32DE0E02082F32DE9E13A
:103020002082E2E32082EBE42082E4E62082EDE7E6
:1030300020820895F0E7FF2E3F2E40CBE4E1F9E631
:103040002192E033E9F70895209248012092490146
:10305000E1E0E09343010895E0E8F9E6D3C0E4E855
:10306000F9E6D0C0E8E8F9E6CDC0E0E9F9E6CAC083
:10307000ECE8F9E6C7C0E4E9F9E6C4C0E8E9F9E636
:10308000C1C0E091686A2092686AE21140CB08955D
:10309000E7990895DD2DC5E0E881F091576AF39531
:1030A000E093576AEF1709F40895E29A36CBDD2DC5
:1030B000C0E0ED85E0933D6AE79953CAEB85E77F71
:1030C000F9E00C94831902D0E9DE34C0E091006885
:1030D000F0910168C3E301D015C0DD2DCC2E8881AD
:1030E00099819F3F49F4803051F08F3F51F000901B
:1030F000526A801521F005C08E179F0711F40F90BA
:103100000F900895CAE1DD2DCC2E80E090E0E0E044
:10311000F9E609901190802901249029E830C9F737
:10312000803011F09211FFCAE0E009F0E1E0E09395
:10313000566A0895E601EA8102C0E601E885E231B7
:1031400020F4F0E0ED5EFD4E0994EDCA2092FC6C97
:103150002092F86CECB3E260ECBB089501D037C06C
:10316000E0E0F9E60E945512EF010E944112E99356
:10317000F9930E944312E993F9930E942519E99368
:10318000F9930E942819E993F9930E944512E99353
:10319000F9930E944712E993F99382E0E4DE81E01B
:1031A000E2DE83E0E0DE84E0DEDE87E0DCDE85E098
:1031B000DADE86E0D8DEE0E1F1E180E13DDEE8E163
:1031C000F0E0E993F993E0910A68E993089509D052
:1031D00081E08993E8E0F9E68CE02EDE29922992DD
:1031E0000895C0E2DDE6E0E0F9E688E025CE0C9443
:1031F000081AECE3F894AFE1BAE6ADBFBEBFA2D0C7
:10320000A895FECF8081918101968083918328F4D7
:10321000828193810196828393830895019009921C
:103220008A95E1F7089529928A95E9F708959FEF25
:1032300099938A95E9F70895E0E0FFE80990E02581
:10324000E0818A95D9F7EE230895E0E0F0E0089553
:10325000E0E0F0E00895E8EDFCE60E947912C8EBAA
:10326000DAE60E947B12E8EBFCE60E947912C8EBDA
:10327000DAE60C947B12E8EDFCE60E947D120C94D9
:103280006D12799FE001689FD001699FB00DC11D4B
:10329000D21D789FB00DC11DD21D089580E404C0D9
:1032A00080E202C080E100C0C083D1838283238298
:1032B00024822582B8CF0DD007C00BD003C009D01F
:1032C000AA0FBB1FAA0FBB1FAA0FBB1FAA0FBB1FB2
:1032D0000895B381A081AB0FB181B21DDC91CC9375
:1032E000A481B581AD1BB209AC0FB21DA483B58317
:1032F000C281D381D395DC1708F0DD27D3830895ED
:10330000E2E0F2E000C0EF23F09500903E6A0F2269
:10331000E02904C0E0E002C0EFEF00C0E0933E6AA5
:1033200000C0E0913E6A0C944B12EF23F0950090A0
:103330003D6A0F22E02906C0E0E004C0E5E502C0D6
:10334000EFEF00C0E0933D6A00C0E0913D6A0C944D
:103350004912939904C0E5E5B19B0C94771207C01C
:10336000442455240895AA980895AA9A0895E091AE
:103370004408E7FF0895E0914008E0930074089541
:103380008F93892F0AD08F9108C08F93892F05D0F2
:103390008F9100C002D08CE23BC001D003C08F935C
:1033A000829501C08F938F70805D8A3308F0895FAA
:1033B0002FD08F9108958AE02BD08DE029C00F0186
:1033C000451451F0F0914408F5FF06C0F5E7E52DEE
:1033D000F081F09342085394F0010895451459F098
:1033E000F0914408F5FFFACFF5E7E52DF081F09371
:1033F00042085394F3CF0895C42DD5E701900020DF
:1034000029F00882C395C511F9CFCA954C2ED8CFA3
:103410000F01F201FA95EF1719F0F5E78083439455
:10342000CFCF8F938E2FF201FA95EF1719F0F5E7B2
:10343000808343948F9108958991ACDF9A95E1F749
:1034400008958991821188130895E2DFFACFC2E6C8
:10345000D4EBF7DF80910A68A0DFC2E7D4EBF1DF9D
:10346000BDCF0A0D1B5B34346D2E2E2E5B424C44B7
:103470002D005D1B5B6D0A0D0000C2E8D4EBE1DF9F
:10348000ADCF0A0D1B5B34336D2E2E2E5B55504491
:103490005D1B5B6D0A0D0000CAEAD4EBD2DFC0E011
:1034A000D8E690E1C9DF87DF99CF0A0D1B5B343284
:1034B0006D2E2E2E5B4150505D1B5B6D202D20002C
:1034C000E0916B6AF0916C6AEF2B0895CF93C091F5
:1034D0006B6AC21106C0C0916C6AC21102C0CF9162
:1034E00003C0CF9188940895CF93C2E0C0930A0699
:1034F000C1E0C0930D06C191C0930006C191C09375
:103500000206C191C0930306C191C0930406C19104
:10351000C0930C06C191C0930806C191C0930106E7
:10352000C191C093A000C191C0936B6AC191C09337
:103530006C6AC191C0930B06C191C0930A06E093D7
:103540006D6AF0936E6ACF910894089576956795A9
:10355000769567957695679576956795809106112E
:1035600090910711861B970B6091041170910511C2
:1035700088DEC695B795C695B795C695B795C69595
:10358000B7957C2F6B2F0895E0E0E093736A20924B
:103590009D6A0895FFFFFFFFFFFFFFFFFFFFFFFF93
:1036000026C03EC07AC192C1B0C1C8C1E7C1FAC1EB
:103610000AC212C21AC222C234C23CC03FC069C030
:10362000B5C0C7C0E1C0E9C0F1C0F9C001C109C15E
:1036300011C119C121C129C131C13DC13EC13FC123
:1036400040C148C1E091446AE395E093446AEC9933
:103650000C941012E2E0E093110BF89420921A0BF4
:1036600020921B0B789420926F6A2092706A9924A2
:1036700003C0E3E09E2E00C0E998ED98E1E005C2AA
:10368000ED99E5CF1EF49394E1E0FFC1E92DE4311B
:1036900008F4EDCF9092796AEEE0F7C1ED99D7CFBB
:1036A00036F3EAE8F0EC20DFEE27749BE395E09335
:1036B0008A6AE998EA98EB9820927A6A2092786A66
:1036C000EBE7FAE6CFE02192CA95E9F7E091456A87
:1036D000E395E43650F0E091446AF091466AE09355
:1036E000466AEF1BE093476AE0E0E093456AE2E157
:1036F000CCC1ED99A7CFE0917A6AEF3008F0A2CF64
:10370000FBE7EF0FFAE6F21D9192EB57E0937A6A2E
:10371000E091786AE925E093786A46F509F092CF5E
:10372000E3E0E093110BE091406AF091416A319639
:10373000E093406AF093416AE091426AF091436AF3
:10374000E21DF21DE093426AF093436AE091716AD0
:10375000F091726AF695E795F695E795F695E795F7
:10376000F211EFEFE093A16AE1E18FC1E091716A9C
:10377000F091726AF695E795F695E795F695E795D7
:10378000F211EFEFE0939F6AE0E17FC1ED9B0EF451
:1037900059CFE091716AF091726AF695E795F695C6
:1037A000E795F695E795F211EFEFE093A06AE2E175
:1037B0006CC1ED9B0EF046CFE2E0E093110B20923E
:1037C0006F6A2092706AE091716AF091726AF69560
:1037D000E795F695E795F695E795F211EFEFE0930B
:1037E000A26A62D1E2E051C1E0917A6AE03019F454
:1037F000E2ECFFEB79DEE3E176C0E0917A6AE0305B
:1038000019F4E6EDFFEB70DEE4E170C0E0917A6A56
:10381000E03019F4EAEEFFEB67DEE5E164C0E09129
:103820007A6AE03019F4EEEFFFEB5EDEE6E15EC0AF
:10383000E0917A6AE03019F4E2E1F0EC55DEE7E17C
:1038400052C0E0917A6AE03019F4E6E2F0EC4CDE26
:10385000E8E14CC0E0917A6AE03019F4EAE3F0EC78
:1038600043DEE9E140C0E0917A6AE03019F4EEE429
:10387000F0EC3ADEEAE13AC0E0917A6AE03019F41D
:103880002D9800002D9AEBE12EC0E0917A6AE0308D
:1038900019F4EEE9F0EC28DEECE128C0E0917A6A58
:1038A000E03039F4E0910A00E295E095EF70E093A2
:1038B0003A6AEDE118C0EEE119C0EFE114C0E0E2B0
:1038C00015C0E0917A6AE03019F4E6E7F0EC0CDE1E
:1038D000E1E209C0E0917A6AE03019F4E2E6F0EC46
:1038E00003DEEFE003C0990C90F8CFC01EF090FC0F
:1038F000A9CECBC090FEA6CEC8C00EF0A8CEC09177
:103900009D6AD0914F6AEB99D860D3FFC070D09177
:103910004F6AEB99D260EA99D0FFCC7FD1FFC37098
:10392000C0939D6A749B7599A4CE00C0E99AD0910A
:103930004F6AC0910A0BCD23D0914F6ACD0FCF7043
:10394000C0939E6AC15BDCE0F001CD9FF8940092C9
:103950001C0B10921D0B78940F01E2EBF0ECC4DD10
:10396000E0E0E093110BE4E090C02D9800002D9A68
:10397000F0919D6AE0918D6AF0FDE0938208E091FC
:103980008E6AF1FDE0938208E8E6F1E0F894E093B6
:103990001C0BF0931D0B7894E5E077C0D0914F6A33
:1039A000C0910A0BCD23D0914F6ACD0FCF70CE5A64
:1039B000D0919E6ACD1BDCE0F001CD9FF89400927F
:1039C0001C0B10921D0B78940F01E0910A00E295F8
:1039D000E095EF70E0933B6AE6E057C02D98000059
:1039E0002D9AF0919D6AE0918F6AF2FDE093820832
:1039F000E0EFF0E0F894E0931C0BF0931D0B78944B
:103A0000E7E043C0F0919D6AE091906AF3FDE09396
:103A10008208E0EEF1E0F894E0931C0BF0931D0BAC
:103A20007894E8E032C0F0919D6AE091916AF4FDEB
:103A3000E0938208E9E029C0F0919D6AE091926AE2
:103A4000F5FDE0938208EAE020C0F0919D6AE091E4
:103A5000936AF6FDE0938208EBE017C0F0919D6A4F
:103A6000E091946AF7FDE0938208E0910A00E29504
:103A7000E095EF70E0933C6AE2E0E093110BECE03C
:103A800004C020929D6AE0E000C0E093736AAF91A9
:103A9000BF91CF91DF91E1E0E093150BEF91EFBF84
:103AA000EF91FF9108950895CBE7DAE6A0917A6A45
:103AB0002092B56AE881E15AF0E0F24E0994FFC025
:103AC00010C10FC10EC10DC10CC10BC10AC109C18A
:103AD00008C107C106C105C104C103C102C101C1BA
:103AE00000C1FFC0FEC0FDC0FCC0FBC0FAC0F9C0F1
:103AF000F8C0F7C0F6C0F5C0F4C0F3C0F2C0F1C022
:103B0000F0C0EFC0EEC0EDC0ECC0EBC0EAC0E9C051
:103B1000E8C0E7C0E6C0E5C0E4C0E3C0E2C0E1C081
:103B2000E0C0DFC0DEC0DDC0DCC0DBC0DAC0D9C0B1
:103B3000D8C0D7C0D6C0D5C0D4C0D3C0D2C0D1C0E1
:103B4000D0C0CFC0CEC0CDC0CCC0CBC0CAC0C9C011
:103B5000C8C0C7C0C6C0C5C0C4C0C3C0C2C0C1C041
:103B6000C0C0BFC0BEC0BDC0BCC0BBC0BAC0B9C071
:103B7000B8C0B7C0B6C0B5C0B4C0B3C0B2C0B1C0A1
:103B8000B0C0AFC0AEC0ADC0ACC0ABC0AAC0A9C0D1
:103B9000A8C0A7C0A6C0A5C0A4C0A3C0A2C0A0C002
:103BA0009FC09EC09DC09CC09BC09AC099C098C039
:103BB00097C096C095C094C093C092C091C09FC05A
:103BC0009EC09DC09CC09BC09AC099C098C097C021
:103BD00096C095C094C093C092C091C090C08FC051
:103BE0008EC08DC08CC08BC08AC089C088C087C081
:103BF00086C085C084C083C082C081C080C07FC0B1
:103C00007EC07DC07CC07BC07AC079C078C077C0E0
:103C100076C075C074C073C072C071C070C06FC010
:103C20006EC06DC06CC06BC06AC069C068C067C040
:103C300066C065C064C063C062C061C060C060C06F
:103C40005FC05EC05DC05CC05BC05AC059C058C098
:103C500057C056C055C054C053C052C051C050C0C8
:103C60004FC04EC04DC04CC04BC04AC049C048C0F8
:103C700047C046C045C044C043C042C041C040C028
:103C80003FC03EC03DC03CC03BC03AC039C01AC076
:103C900019C018C017C016C015C014C013C012C078
:103CA00011C010C00FC00EC00DC00CC00BC00AC0A8
:103CB00009C008C007C006C00DC009C00EC0A15091
:103CC000219636C0A093B66AC093B36A68C1A1506A
:103CD0002196C6C0A1502196C4C0A1502196BBC058
:103CE00000C0EA9AE881F0914F6AB0914F6AB5FF3F
:103CF000EF13CCC0A15021961BC0EB9AFBCF4FC154
:103D0000EA9AE981E330E88111F4E03C79F0F0913E
:103D10004F6AB0914F6AB5FDEF13B8C0E981F091D9
:103D20004F6AEF13B3C0A250229602C0EB9AFBCFAA
:103D3000A093B66AC093B36AE881E295EF70ED553F
:103D4000F0E0F14E09940FC024C039C038C0ABC0B8
:103D5000AAC0A9C0A8C0D3C0D2C0D9C0D4C055C0C1
:103D600054C0FFC0FCC0E991EF70E754F0E0F14EA1
:103D70000994EDC0F0C017C116C10DC10CC10BC133
:103D80000AC109C108C1A7C0A6C005C104C103C1B9
:103D90009EC0E991EF70E153F0E0F14E0994FBC051
:103DA000FAC091C090C0F7C0F6C0F5C0F4C0F3C02F
:103DB000F2C0F1C0F0C0EFC0EEC0EDC0ECC0E991C0
:103DC000EF71EB51F0E0F14E0994E5C0E4C0E3C0BF
:103DD000E2C0E1C0E0C0DFC0DEC0DDC0DCC0DBC0EF
:103DE000DAC0D9C0D8C0D7C0D6C0D5C0D4C0D3C01F
:103DF000D2C0D1C0D0C0CFC0CEC0CDC0CCC0CBC04F
:103E0000CAC059C05CC0C7C052C0E991EF71E55F3C
:103E1000F0E0F04E09946FC062C065C0BCC0BBC08A
:103E2000BAC0B9C0B8C0B7C0B6C0B5C0B4C0B3C0DE
:103E3000B2C0B1C0B0C0AFC0AEC0ADC0ACC0ABC00E
:103E4000AAC0A9C0A8C06FC072C075C078C07BC02E
:103E50004EC061C064C0A093B66AC093B36A18C074
:103E60009AC099C08F93E4EAFAE6A091B66A8A2FC5
:103E70008C0FB081A193BA17A081B991BA07B19301
:103E80008C13FACFC091B36A8F910895E3E291C089
:103E9000EB99FCCFE881E03011F0ECE18AC0EB99BE
:103EA000F5CFEDE186C0EB99F1CFE1E082C0EB996F
:103EB000EDCFE2E07EC0EB99E9CFE3E07AC0EB9989
:103EC000E5CFE4E076C0EB99E1CFEFE172C0EB998A
:103ED000DDCFE0E26EC0EB99D9CFE1E26AC0EB99A9
:103EE000D5CFE5E066C0EB99D1CFE6E062C0EB99B3
:103EF000CDCFE7E05EC0EB99C9CFE8E05AC0EB99BF
:103F0000C5CFE9E056C0EB99C1CFEAE052C0EB99CA
:103F1000BDCFEBE04EC0EB99B9CFECE04AC0EB99D6
:103F2000B5CFEDE046C0EB99B1CFEEE042C0EB99E2
:103F3000ADCFEFE03EC0EB99A9CFE0E13AC0EB99FD
:103F4000A5CFE1E136C0EB99A1CFE2E132C0EB9918
:103F50009DCFE3E12EC0EB9999CFE4E12AC0E5E1E2
:103F600028C0E091B66AE43011F048F418C0E88146
:103F7000E3FD02C0E6E11DC075DFE7E11AC0E8819C
:103F8000FE2FE370F3FD04C0F2FF05C0E8E111C0AD
:103F900069DFE9E10EC0EB9979CFEBE10AC0EB995B
:103FA00075CFE2E206C0EB9971CFEEE102C0EAE123
:103FB00000C0E093B56AE091796AE093B46A08952D
:103FC000089515020000010002812A6A0001000024
:103FD00000810000000215020000010002812C6A2D
:103FE0000001000000810000000215020000010134
:103FF00002812E6A0001000000810000000215020B
:10400000000001010281306A00010000008100000F
:1040100000021502000001020281326A0001000064
:104020000081000000021502000001020281346AD2
:1040300000010000008100000002150200000103E1
:104040000281366A000100000081000000021502B2
:10405000000001030281386A0001000000810000B5
:1040600000021502000001090280266A000100001A
:1040700000810000000215020000010A0280286A87
:10408000000100000081000000021502000001078D
:104090000281226A00010000008100000002150276
:1040A000000001130281246A000100000081000069
:1040B00000021106000001420081696A000101420C
:1040C0000081206A00010000008100000002FFFF63
:1090000087C0FFCFFFC7FFCFFFC7FFCFFFC7FFCF8F
:10901000FFC7FFCFFFC7FFCFFFC7FFCFFFC7FFCF00
:10902000FFC7FFCFFFC7FFCFFFC7FFCFFFC7FFCFF0
:10903000FFC7FFCFFFC7FFCFFFC7FFCFFFC7FFCFE0
:10904000FFC7FFCFFFC7FFCFFFC7FFCFFFC7FFCFD0
:10905000FFC7FFCFFFC7FFCFFFC7FFCFFFC7FFCFC0
:10906000FFC7FFCFFFC7FFCFFFC7FFCFFFC7FFCFB0
:10907000FFC7FFCFFFC7FFCFFFC7FFCFFFC7FFCFA0
:10908000FFC7FFCFFFC7FFCFFFC7FFCFFFC7FFCF90
:10909000FFC7FFCFFFC7FFCFFFC7FFCFFFC7FFCF80
:1090A000FFC7FFCFFFC7FFCFFFC7FFCFFFC7FFCF70
:1090B000FFC7FFCFFFC7FFCFFFC7FFCFFFC7FFCF60
:1090C000FFC7FFCFFFC7FFCFFFC7FFCFFFC7FFCF50
:1090D000FFC7FFCFFFC7FFCFFFC7FFCFFFC7FFCF40
:1090E000FFC7FFCFFFC7FFCFFFC7FFCFFFC7FFCF30
:1090F000FFC7FFCFFFC7FFCFFFC7FFCFFFC7FFCF20
:1091000001003BC1020100008CAC1E6626AAD6E518
:10911000A895F8942224EFB3E0930A68EFE1FAE609
:10912000EDBFFEBFECE069D4E8EDF3E0E4BFF093FF
:10913000600000C000C0E0916300E1FDFCCFE8EDFD
:10914000F1E0E4BFF093620052D4E0E0FAE6C0E060
:10915000DCE021922197E9F720924508E8E020928F
:109160003204E0933104E0933004E0E6F8E0268234
:10917000A0E6B0E0A087B187A0E0A583A3E0A78325
:10918000A2ECA6832A982198209A229AE0E0FBE09C
:109190002082218224862586AFEFA683A3E0A083C8
:1091A00014D439D43BD4CFD38AD2ACD4AA98A29ABF
:1091B0007CC02BC5C5C522C5CEC5DDC42AC543C5E7
:1091C0004CC55FC588C5A6C5AFC0AEC0ADC0ACC0FC
:1091D000ABC00C9408000C9409000C940A000C9489
:1091E0000B000C940C000C940D000C940E000C94CD
:1091F0000F000C9410000C9411000C9412000C94AD
:1092000013000C9414000C9415000C9416000C948C
:1092100017000C9418000C9419000C941A000C946C
:109220001B000C941C000C941D000C941E000C944C
:109230001F000C9420000C9421000C9422000C942C
:1092400023000C9424000C9425000C9426000C940C
:1092500027000C9428000C9429000C942A000C94EC
:109260002B000C942C000C942D000C942E000C94CC
:109270002F000C9430000C9431000C9432000C94AC
:1092800033000C9434000C9435000C9436000C948C
:1092900037000C9438000C9439000C943A000C946C
:1092A0003B000C943C000C943D00E3E0A6D31ED0A0
:1092B000E0E0A3D33DC0209200702092197020926C
:1092C000327020924B702092647020927D702092B8
:1092D0000071209219712092327120924B7120926C
:1092E000647120927D7108953B2C08952A98319BDA
:1092F000FECFE0E5F0E03199FCCF3197E1F7319B0B
:10930000FECF0895E29A0DD239D285E6DCD310C0A3
:10931000E29A07D236D28EE7D6D30AC0E29A01D2B9
:1093200033D283E2D0D304C0FCD122D28EE200C07B
:109330006BD3AFD3EFE1FAE6EDBFFEBF61D306D04A
:1093400011D22CD23AD2EDD1CDD143C2E199B3DFC3
:10935000E79BCADFE299F4D1ECB3E973ECBB01D02F
:1093600080C0C4DF2DD0CC24E601D093256A87E1EC
:1093700062D0F0932A6A87E15ED0F0932A6A87E18F
:109380005AD0F0932A6A87E156D0F0932A6A87E18F
:1093900052D0F0932A6A8FE74ED0FD2DE1E0E081B4
:1093A000E7FD06D0E69B07D0E4E0E093A70408952C
:1093B000E69AE79A0895E1E0DE26E1E0BE2635C0B0
:1093C000A895209266082092000BECE0F0E0E09374
:1093D0000A0BF0930B0B20920C0B20920D0BEFEF6E
:1093E000E093060BE2ECE0936608209A87E0CBE27C
:1093F000DAE63199FECFE3E0E093000BE4E0E0939E
:10940000A704E0E0FFE80090640807FEFCCF0090AE
:1094100061081090600802FC75CF1992E125E08187
:109420008A958AF7E0932A6A0895EBE2FAE6CCE09F
:10943000D8E687E070C22196E0E0FFE8009064087B
:1094400007FEFCCF009061081090600802FC5ACF24
:109450001992E125E0818A958AF7F0912A6AFE2B1C
:109460000895BB2DB093266A60E07FE336D060E0BC
:1094700075E4A9E187E13FD060E07BE42ED060E0B5
:1094800071E5A2E387E137D060E077E526D060E0C0
:109490007DE5ABE487E12FD060E073E61ED060E0AD
:1094A00079E6A4E687E127D060E07FE616D060E0A9
:1094B00075E7ADE78FE71FD060E673E900900A0B10
:1094C000061600900B0B07060090060B01FEB0F38A
:1094D000E4E0E093A7042A98089500900A0B06168A
:1094E00000900B0B07060090060B01FEB0F3E4E0C2
:1094F000E093A7040895ED91E699EE7FE0FD2A9AA6
:10950000E0FF2A9800900A0B061600900B0B070646
:109510000090060B01FEB0F3E4E0E093A704E091B5
:109520006408E5FFFCCFED91E09362088A95BAF7F5
:10953000E0E4E0936408E0916408E6FFFCCF08955E
:109540000C94900C0C948B0C0C94940C9FD0E8E72A
:10955000FCE687E1F7DF87C099D0E8E7FCE68DE01D
:10956000F1DFECE0F8E683E0EDDF83E0E9DF6FC0F8
:109570008DD0D32DCEE780E8E0E0F9E6E3DF02C04E
:1095800085D000C088D082D0F6018FE0DBDFD32DFC
:10959000CEE7AFE7B0E029DEF32DEC2D3F96A193A7
:1095A000B193C193D19353C0E60188E1CDDF09F4B3
:1095B0000895AECEE601A2E1B0E017DEF6017396A3
:1095C00071C0DD2DCEE7AFE7B0E00FDEF6013F96CC
:1095D00069C0E091276AE211E150E093276AE21145
:1095E000A3CEE601E985F091226AEF23FA95F09384
:1095F000226AE21199CE85C0E601E985F091776C87
:10960000F211EF1391CE08950895E091286AE0FFDA
:109610008BCE0895E091286AE0FD04C08091236A12
:10962000821182CE0895D5DDA991B9910D0101284D
:10963000AE17BF07021051F4CEDDA991B9910D010B
:109640000128AE17BF07021009F408956DCED32D7F
:10965000CC2DA2E1B0E0C9DDF32DEC2D7396A193E2
:10966000B193C193D193D32DCC2D87E16DDFE993D5
:109670000895DF93CF93C82F0E94B30CEF91FF9111
:10968000A193B193C193D193EF010895CC2DCA95C5
:1096900004C0C4E602C0CDE700C0D32D888181603C
:1096A0008993089501900A1233CE01900B1230CEA7
:1096B00001900C122DCE01900D122ACE0895E3E0F8
:1096C000E093216AE0E0F2E76F01E0E0F0E75F019C
:1096D0003F2E2092286A2092246AE4E0ECBBC4D09A
:1096E0001DD00FC0E7990895FD2DE2E0808180FD37
:1096F00001D00895E091276AE211EA95E093276A84
:109700000895E0914801FFE0F491F093226A2092DD
:10971000276A0895EFE0E093276A08952092236A6C
:109720000895F32DE0E02082F32DE9E12082E2E3C9
:109730002082EBE42082E4E62082EDE72082089597
:10974000F0E7BF2E3F2EB7CDE4E1F9E62192E033FA
:10975000E9F708952092480120924901E1E0E09361
:1097600043010895E0E8F9E6CAC0E4E8F9E6C7C0B5
:10977000E8E8F9E6C4C0E0E9F9E6C1C0ECE8F9E6DA
:10978000BEC0E4E9F9E6BBC0E8E9F9E6B8C0E0919B
:109790002A6A20922A6AE211BBCD0895E7990895BA
:1097A000DD2DC5E0E881F091296AF395E093296AFF
:1097B000EF1709F40895E29AB1CDDD2DC0E0EC85F4
:1097C000E093216AE799B4C2EB85E77FFBE00C9454
:1097D000DE0C1ED0E9DE37C0E0910068F091016830
:1097E000C3E301D015C0DD2DCC2E888199819F3F28
:1097F00049F4803051F08F3F51F00090246A801579
:1098000021F005C08E179F0711F40F900F90089557
:10981000CAE1DD2DCC2E80E090E0E0E0F9E6099091
:109820001190802901249029E830C9F7803011F087
:1098300092117ACDE0E009F0E1E0E093286A089522
:10984000E601EA8102C0E601E885E03120F4F0E0BB
:10985000E752F74F099468CD2092776C2092736C91
:10986000ECB3E260ECBB089501D037C0E0E0F9E66C
:109870000E94FD08EF010E94E908E993F9930E9414
:10988000EB08E993F9930E949D0CE993F9930E94E8
:10989000A00CE993F9930E94ED08E993F9930E94D3
:1098A000EF08E993F99382E0E4DE81E0E2DE83E011
:1098B000E0DE84E0DEDE87E0DCDE85E0DADE86E026
:1098C000D8DEE0E1F1E180E13DDEE8E1F0E0E993BE
:1098D000F993E0910A68E993089509D081E08993AA
:1098E000E8E0F9E68CE02EDE299229920895C8E797
:1098F000DCE6E0E0F9E688E025CE0C94630D80819B
:10990000918101968083918328F4828193810196CD
:10991000828393830895019009928A95E1F70895CF
:1099200029928A95E9F70895E0E0FFE80990E0259B
:10993000E0818A95D9F7EE230895E0E0F0E00895FC
:10994000E0E0F0E00895E3E5FCE60E942109C3E3CE
:10995000DAE60E942309E3E3FCE60E942109C3E35F
:10996000DAE60C942309E3E5FCE60E9425090C9451
:109970001509C0E0D8E6A4E0B0E00EC0C0E0D8E62B
:10998000A8E0B0E014C0C0E0D8E680E0C9DF00C0C5
:10999000EFEFE0930968089528DCF001A095B095F9
:1099A000C095D095A083B183C283D38308951DDC75
:1099B000F00180830895E2E0F2E000C0EF23F0952B
:1099C0000090206A0F22E02904C0E0E002C0EFEF1F
:1099D00000C0E093206A00C0E091206A0C94F30874
:1099E000EF23F0950090216A0F22E02906C0E0E005
:1099F00004C0E5E502C0EFEF00C0E093216A00C0BB
:109A0000E091216A0C94F108939904C0E5E5B19BBB
:109A10000C941F0907C0442455240895AA9808955A
:109A2000AA9A0895E0914408E7FF0895E09140085C
:109A3000E093007408958F93892F0AD08F9108C006
:109A40008F93892F05D08F9100C002D08CE23BC04C
:109A500001D003C08F93829501C08F938F70805D7A
:109A60008A3308F0895F2FD08F9108958AE02BD038
:109A70008DE029C00F01451451F0F0914408F5FF25
:109A800006C0F5E7E52DF081F09342085394F0010C
:109A90000895451459F0F0914408F5FFFACFF5E721
:109AA000E52DF081F09342085394F3CF0895C42D2F
:109AB000D5E70190002029F00882C395C511F9CFA0
:109AC000CA954C2ED8CF0F01F201FA95EF1719F075
:109AD000F5E780834394CFCF8F938E2FF201FA95D1
:109AE000EF1719F0F5E7808343948F9108958991DA
:109AF000ACDF9A95E1F70895899182118813089552
:109B0000E2DFFACFC8E1DBE9F7DF80910A68A0DF86
:109B1000C8E2DBE9F1DFBDCF0A0D1B5B34346D2EEB
:109B20002E2E5B424C442D005D1B5B6D0A0D000028
:109B3000C8E3DBE9E1DFADCF0A0D1B5B34336D2EEB
:109B40002E2E5B5550445D1B5B6D0A0D0000C0E678
:109B5000DBE9D2DFC0E0D8E690E1C9DF87DF99CF4B
:109B60000A0D1B5B34326D2E2E2E5B4150505D1B57
:109B70005B6D202D200049DD1DDDCCDD82E6BDDEE4
:109B8000C0911A69D0911B69CF33A1F5D13C91F5F1
:109B90002A982FDF7EDFE601898580930268888915
:109BA000998980930368909304688E859F8580933C
:109BB000006890930168ECE0F8E6C5E1D8E687E03C
:109BC000AADE80910268839580931768C5E1D8E684
:109BD00087E0AADEE8830E94B90CE6018A8980FF4B
:109BE0000C940010E8EDE0933400E5E8E0930110F8
:109BF0000C940010ECB3E260ECBB96CB06DDDADC33
:109C000089DD81E77ADEB4DC93CB89E676DE0C94DD
:109C1000980900DDE6012A9606DDCCDC7BDD83E7D2
:109C20006CDEE601EE85E093736CE985E093776C7A
:109C300091DDC7E0E3E5FCE608DBC091736CE3E38C
:109C4000FCE603DB75CBE6DCE6012A96ECDCB2DC55
:109C500061DD85E752DE00DE6BCBD7DCABDC5ADDA5
:109C600082E74BDEF601A285B385D32DCEE785854D
:109C7000813808F059CB0D9009928A95E1F780DC84
:109C800057CBBADCC7DC96DC9CDC44DD63DD87E7C0
:109C900034DEF60182859385D3DEF6018585D5DE37
:109CA0002A9852DDA0E8B0E0DD2DCEE7E3E5FCE642
:109CB000CEDAF601C285D385E3E3FCE6A6DAE60157
:109CC000AD85B0E0C3E5DCE6E3E3FCE6C4DAECB383
:109CD000E260ECBB2DCB90DC9DDC6CDC1BDD86E612
:109CE0000CDEF60182859385ABDEB6DD2DDD2A988C
:109CF000E3E3FCE6B6DAF601C285D385E3E3FCE6EE
:109D000084DAE6018D85A9DAACDAB0DDECB3E26085
:109D1000ECBB0ECB79DCE6012A9685DC4BDCFADC69
:109D20008DE6EBDDF60181858093236A0C9498091A
:109D30008DE2E3DDE8E0F8E041DE17DD0C94980900
:109D400069DCE6012A966FDC35DC43DC80E7D5DD93
:109D5000C4DD02DCEDCA5EDCE6012A9664DC2ADCA6
:109D6000D9DC82E5CADD7FCAFFFFFFFFFFFFFFFFEF
:00000001FF
