:020000020000FC
:100000000C943E000C94FD010C94FD010C949301A2
:10001000B7C1B9C1BBC1BDC1F0C0DDC0A3C5A4C5D6
:10002000BDC1BAC1C2C16BC370C3F5C3F8C381C33C
:100030008BC392C325C4FEC30CC475C36AC36EC30D
:100040009EC4D1C1C5C1CAC10EC313C31EC31FC341
:1000500027C333C34AC34EC359C4D7C0DDC050C43D
:1000600083C38DC369C3A9C4B2C4C7C4E9C6ECC6FF
:10007000EEC6F0C6F5C603C713C77FC1F8942224A5
:100080002C98249A2B98239AE7E2F9E6EDBFFEBF5D
:10009000E8EDF7E0E4BFF0930001A895E8EDF4E2A5
:1000A000E4BFF0936800E0914000E0934000EFBBB4
:1000B000E8EDE4BF209201102BBE2A98229AE8EDC9
:1000C000F0E6E4BFF0931001E0914101E211FCCFB2
:1000D0002092480120924901E1E0E0934001E3E0F1
:1000E000E093E205E0E0E093E305ECE0E093E40573
:1000F000069A079A049AE4E0E0934109E1E3E09369
:100100004009E8E0E093B204E0939304E093B10483
:10011000E093B004E0E4F8E02682A0ECB0E0A08731
:10012000B187A0E8A583A3E0A783A2ECA683839868
:10013000A198AA9AA89AA29AA09AAD98439AA49A2A
:1001400048D05AD0F89902C0F99B06C0E0E0F0E62A
:10015000AFEFA193F836E8F3E0E0F8E62192F0384B
:10016000E8F3E0914801F0914901F230D0F3E2E088
:1001700032D03ED0939B0BC000900090009429F0A9
:10018000C2E0EDD499D409F44BC1E1E02CC1E0E028
:10019000FAE02082218222822382AFE0A083E0E085
:1001A000FBE020822182AEE6B1E0A487B587A1E022
:1001B000A583A5E0A083A0D2A5D2789408D018D0BA
:1001C000C2E6C4D48FB39927E0E0D2D144C0E0E0C6
:1001D00002C0EFEF00C0E0FF4B9AE0FD4B98E1FF5B
:1001E000AC9AE1FDAC98E3FFA59AE3FDA5980895CC
:1001F000E0E003C0E5E501C0EFEFE093440904D07F
:1002000003D002D00F980F9A0895E8EDF1E0E09343
:100210003400F0934100FFCFA895E8EDE4BFE1E0A2
:10022000E0930001FFCFB4D3FDD29681A8D30C9206
:10023000A5D3B3C3ADD3A2D39781A1D3F3D20990F1
:100240001C9001100C9211960197C9F797D3A5D372
:10025000089555555555E7E2F9E6EDBFFEBF222753
:1002600034E0EAE285D1C091006979D426D1203406
:1002700091F324FD10C026FFF9CFE2E0F3E00590F2
:1002800000160590159019F4F0010995E4CFE632B7
:10029000B1F720FFEBCF003449F7622F6370613074
:1002A00029F72062F7D07A3B21F46331A1F620616F
:1002B000DDCF24FFD0CF7B3B39F4693060F6C62F09
:1002C0004ED4246031E0D2CF7C3B21F422FFC3CF57
:1002D0007DD1CCCF7F3B51F6603011F40AD0BBCF3B
:1002E000613009F40AD0B7CF68E070C1C02F2ED4B6
:1002F000B2CF6CD3EEED3CD1AECF7ED3ECEE38D1A5
:10030000AACF53060252ED01647401617601627650
:100310000163760165760166760173760175760173
:100320006C7601002B01EFB64F01E0914408E7FF26
:1003300013C0E72DE619E03C23FF08F0AA9AE091EC
:100340004108E2FD82C0F0E7E72D7090400871920D
:100350007E2EF401EFBE1895E091060BE093060B9C
:10036000761411F442104A943A9422F4332EE8E0C1
:10037000E0934704F401EFBE1895E0E0F0E0089543
:10038000EDE0F0E00895E0E3F1EC0895E1E0F0E065
:100390000895E0E3F1EC089503D0E6C301D0E2C391
:1003A000AFE0B0E0C0E1D1E10895F8DFA193B193EF
:1003B000C193D193F1DFA193B193C193D1930895E8
:1003C000DFEF672C94D06710FBCF2197D9F7089502
:1003D00017D048F00895EBE001C0EAE00EDF20926C
:1003E000480120924901A895F894AA98F0E208D013
:1003F000E8F703DFF0E404D0E8F7E9DEF9DE05CF43
:100400000090480100904901F0150895C0910069DD
:10041000A6D352D3C9F4CF3311F0CB33A9F4D0DF34
:10042000209245082092000A2092000B2092050B92
:1004300020924801209249018ED1FE01E050F048FF
:10044000F695E795F894099411CFF8942092460810
:10045000AA98E8E0C0DEE5E5D0DEEFEFA89500C0A1
:1004600000C000C0E211EA95B19BF8CFE211F5CFD0
:10047000C4CF8E2F9927C1DEE8E0ADDEE4EA78D064
:10048000F0910900E2E0F3FDEAE0A5DE32E0672C3E
:100490002ED0F6CF04D0702F02D0602F089507D051
:1004A00002950F9304D00F900029F00E089505D007
:1004B0000F7D075308F4095D089519D0421002C05A
:1004C00025FDC9CE7614C9F3F0E7E62D00816394CB
:1004D000206442102F7B26FD2F7EFBE04F2E21FF54
:1004E00023950A3011F00D3009F42C7F00C00F0164
:1004F000A89523FD06C0E72DE619E03218F4AA9866
:1005000001C0AA9AF0010895019101D003C00F9390
:10051000029501C00F930F70005D0A3308F0095F68
:100520001BD00F910895092FF0DF082FEECF0AE0BE
:1005300013D00DE011C0E0E0F1E1E6DFE5DFE4DF3C
:100540000EE20AD029DFCE01EEDFCD01ECDF26DF9F
:10055000CE01E9DFCD01E7CFD8E1C9DF0090440843
:1005600005FEFBCF21979399C1F7009342080895A8
:10057000E0930169FDE0E091016905910EBBE09314
:100580000169002391F012F0E7DFF4CFF1990ED06A
:10059000F29911D0F399C7DFF499CDDFF69913D012
:1005A000F599ADD2F099C3DFE5CF0895C591E093F9
:1005B0000169D5D28BC200900069109031690AE2BE
:1005C00010100895C9CF09E0C7DF82C26CBBE09963
:1005D000BAD2E19907D0E3999AD2E69921CFE79967
:1005E000FACE089517D1B7D0C0930269D0930369AA
:1005F00064DF20FFFDCF0A33D9F751DF502EF02EF4
:1006000049DFC0910269D0910369C60FD71F47DF48
:10061000003031F00130F1F0023069F0E4E029CF30
:10062000FDD008945208A0F02AD1E5E0C8F037DFE9
:10063000802F0ED1F6CF2EDF660F771F660F771F44
:10064000660F771F660F771F6093026970930369C7
:1006500003D0CECF5AD100C022DFF21411F0E6E071
:1006600008CF0895BBD0C7E3D3E049D04EC0A895CA
:100670000895C487D5870895C93008F0C9E0DCE043
:10068000CD9FE001C05CD5470895F6DFADC0C083C3
:10069000D183C48BD58BCA0FDB1FC283D38308954C
:1006A000A68FA895C28FD38FD5D020F0C28DD38DC1
:1006B0002197B9F70895AA27BB27C48FD58FEC8F50
:1006C000FD8FA895A28FB38FC48DD58DFE01B2D0BA
:1006D00048F0C48DD58DFE01BCD020F0A28DB38D25
:1006E000119779F708958FEF79D0868FA895B2D0BA
:1006F000E8F70CC1FADFFFCF71D0C2EDD4E0C68BB2
:10070000D78B08956BD0CBEDD4E0C08FD18F0895F7
:1007100065D081D00ED018D025C260D07CD009D051
:1007200013D022C25BD0F5DF02841384C015D1053B
:100730000895C489D5890895C489D5890080118018
:10074000C019D10908954AD0A281B38104881588BF
:10075000A019B109089542D0C081D18108953ED039
:10076000C281D38108953AD000801180C281D381A3
:10077000C019D10909F021960024021C08957CDFDC
:10078000FE0100801180C281D381F2CF0C2ECCE417
:10079000DAE81884101419F02C96CC3AD1F70895A1
:1007A000DCE0CD9FE001C05CD5470895CE01CCE4EC
:1007B000DAE8088019808015910530F00A801B80E6
:1007C0008015910531F028F02C96CC3A91F70894D9
:1007D000089588940895A0E0B1E70895E8E2F9E665
:1007E0000895FCDFA487B5878CE0099001928A9573
:1007F000E1F73C97C481D5812197C095D095C28BF4
:10080000D38BC081D181C687D787C08BD18B278EF0
:1008100002D07EC0E3DFC081D18101C0DFDFC48BA5
:10082000D58B089584819581A685B785C485D585A6
:100830000895D4DF25D038F0C489D58950D020F070
:100840008991C48BD58B089521968FEF0894F9CFA9
:10085000C5DF868F15D090F053D0C481D581219704
:10086000A489B589CA23DB231196A48BB58BA485F3
:10087000B585CA0FDB1F868D888388940895AEDF07
:1008800004881080011405881180010440F0048858
:100890001280011405881380010419F010F00894E7
:1008A0000895889408959ADFC489D589A685B78567
:1008B000CA17DB0730F0A089B189CA17DB0719F026
:1008C00010F0089408958894089588DFC685D78528
:1008D00006D0A78DAE7F08F4A160A78F0895C0341D
:1008E000B0E1DB0748F0D63148F0D03628F0D038F8
:1008F00028F0D03908F002C008940895889408952B
:10090000D3DF10F403D004D0089568DF2BD026C0C5
:10091000C489D58902881388C021D121C687D78789
:1009200084819581C80FD91F2197C08BD18BCEDFD1
:1009300040F0A685B785C485D5850D9009920197AD
:10094000E1F70895078C00FC07C06CDF09901D904B
:10095000011419F40197D1F718940895F3DF09F001
:1009600069CC0895078C00FC08955CDF09901D9008
:100970001020011058CC0197C9F7089590E080919C
:1009800002108370E1F78DE984BF90930010089501
:1009900006880F9207880F920895008C0F92018CA1
:1009A0000F9208952860AA9AFF93F4E6A0DDFA95C5
:1009B000E9F7FF910895277F9ACDC2E066DE80E1D6
:1009C00080930110B0DE20920110089507DFEF013F
:1009D000DFDF2BD069F09BE0D2DFE895CFDF92E03C
:1009E000CEDF00801180E8953296F03AD1F7C6DF6D
:1009F000FE01D3CF02D010CCF1DEFF93EF93C8DF1E
:100A0000DCDF81F412D071F094919F3F59F09BE0AC
:100A1000B6DF0082B3DF92E0B2DF04900192F03AD9
:100A2000E1F7ACDFEF91FF91B8CFE0E0F0E994910E
:100A30008191891711F4F03AD1F7E0E0F0E90895D7
:100A40000000FFFF010000002D00000000A0FFFFDC
:100A50000002080266013FC10090FF9F00020802E9
:100A600062023BC10014FF150100181265033EC16C
:100A700080109F102000080263043CC100111F1168
:100A80000100000073050000501058100100000024
:100A9000750600000060FF670002000061073AC1B0
:100AA00040104F10010000006C0800000011001100
:100AB000010000002D09000035DEA0930469B09309
:100AC0000569C0930669D09307690895F5DF06C0EC
:100AD000E0E1E0930110F0DF20920110EEEC09F468
:100AE000E4ED0ED090910769809106691CDD90912C
:100AF00005698091046917DD02C0EEEC01C0EAEDE2
:100B0000FDE00591002311F027DDFBCF08950FDDF7
:100B100081DEF3DF63DE8489958900E1080F090F28
:100B2000F02EE0E925DD85DE38F0082FF00EEDDC53
:100B300055DE04890F70B9F7E0DFF1940F2DE5DC85
:100B40009EDE40F7089566DECEDDDFCE05D0009153
:100B5000316900930069089519DE3DDE42CE20DE42
:100B60003ADE3FCEE89404C06894CA0FDB1F00C091
:100B7000EF93FF936FEF7FEFCB01FF27A8950EF068
:100B800019900EF41A9008941794062E0F1E96953D
:100B900087957795679500FE08C0EDEE9E27E8EBF8
:100BA0008E27E3E87E27E0E26E27169471F711970F
:100BB00028F790958095709560950E01DB01EC010A
:0E0BC0008623872389238095FF91EF91089566
:100D0000A1811B5B34316D2E2E2E5B524553455411
:100D10002D885DA11B5B34346D2E2E2E5B524F4D02
:100D20002E5254422E4331335D00A1814944205B51
:100D3000905D814C3A208708523A201B5B33326D1C
:100D40004331335230303031A1533A208705553A80
:100D500020870681413A208707423A20C702433A5A
:100D6000208704453A208703463A20870181524F65
:100D70004D205B527C537C645D202D205B617C6246
:100D80007C637C657C667C6C7C737C755D3E20003E
:100D9000813A31301B5B39346DA81B5B39306D30C3
:100DA00030A0000081811B5B34356D2E2E2E5B45FB
:100DB00072726F722023885DA0202D203C627265C4
:100DC000616B3E20746F20726573756D65001B5BEF
:100DD00039306D001B5B33326D001B5B6D00A181F0
:100DE0001B5B34346D5B532D3E5D0000A1811B5BAA
:0A0DF00034346D5B3C2D525D0000B1
:100E0000ACAAA9A5A3A69C9A999593968E8D8BB111
:100E1000B2B4B874726C6A696563665C5A595553AA
:100E2000564E4D4B4771E8E4E2D1C9C5D8D4D2CA79
:100E3000C6CC78171B1D1E2E363A272B2D3539337D
:100E40001ED00ED01CD00CC00BD019D009C017D0AA
:100E500007D015C005D0E991EF73E081ED930895B7
:100E6000E991EF70F881FF0FEE1FFF0FEE1FFEE814
:100E7000E081ED93E991EF73E081ED930895FEE851
:100E8000E881E695E695E081ED93E991E370E295DE
:100E9000F881F07FF295EF2BFEE8E081ED93089565
:0A0EA000FEE8E881E081ED9308957B
:100F0000005EBCE2613FDD83C29C7E20A3FD1F41E9
:100F10009DC3217FFCA2401E5F01E3BD3E6082DCD9
:100F2000237D9FC1421CFEA0E1BF5D0380DE3C62C9
:100F3000BEE0025CDF81633D7C22C09E1D43A1FFB9
:100F40004618FAA427799BC584DA3866E5BB5907A9
:100F5000DB856739BAE406581947A5FB7826C49A99
:100F6000653BD987045AB8E6A7F91B45C6987A2489
:100F7000F8A6441A99C7257B3A6486D85B05E7B979
:100F80008CD2306EEDB3510F4E10F2AC2F7193CD69
:100F9000114FADF3702ECC92D38D6F31B2EC0E5059
:100FA000AFF1134DCE90722C6D33D18F0C52B0EE49
:100FB000326C8ED0530DEFB1F0AE4C1291CF2D7339
:100FC000CA947628ABF517490856B4EA6937D58B29
:100FD0005709EBB536688AD495CB2977F4AA481619
:100FE000E9B7550B88D6346A2B7597C94A14F6A809
:100FF000742AC896154BA9F7B6E80A54D7896B35F9
:00000001FF
